:020000040800F2
:10000000B007002059020008B5280008AD280008F4
:10001000B12800085104000839350008000000002C
:10002000000000000000000000000000812D00081A
:100030005504000800000000B9280008852D0008BC
:1000400073020008730200087302000873020008BC
:1000500073020008730200087302000873020008AC
:10006000730200087302000873020008730200089C
:10007000730200087302000873020008730200088C
:10008000730200087302000873020008730200087C
:10009000730200087302000873020008730200086C
:1000A0009D2D000873020008730200087302000807
:1000B0007302000800000000000000007302000846
:1000C0007302000800000000000000007302000836
:1000D0000000000073020008730200080000000026
:1000E0007302000873020008000000000000000016
:1000F0000000000000000000000000000000000000
:100100000000000000000000000000007302000872
:1001100000000000000000007302000873020008E5
:1001200073020008730200087302000873020008DB
:100130007302000800000000000000000000000042
:1001400073020008730200087302000873020008BB
:1001500073020008730200087302000873020008AB
:100160007302000873020008730200080000000018
:100170007302000873020008000000000000000085
:1001800073020008730200087302000800F002F80E
:1001900000F052F814A696E8000CB244B344DA45D5
:1001A00001D100F049F8BAE80F000FA696E8300038
:1001B000A5EB040504EB0607AAEB0704A7F101076A
:1001C0004FEA15154FEA3414A4F10104AC4201D3EF
:1001D00000F032F813F0010F18BFFB1A43F00103CF
:1001E00000F001F8DBE718474C3600006C360000E1
:1001F000103A24BF78C878C1FAD8520724BF30C853
:1002000030C144BF04680C607047000070470000B4
:100210000023002400250026103A28BF78C1FBD80F
:10022000520728BF30C148BF0B6070471FB503F0AD
:10023000C7FA1FBD10B510BD00F0D0F81146FFF78A
:10024000F5FF03F07BF900F0EEF803B4FFF7F2FFDF
:1002500003BC00F0F5F80000094880470948004752
:10026000FEE7FEE7FEE7FEE7FEE7FEE7FEE7FEE766
:10027000FEE7FEE704480549054A064B70470000C3
:10028000892D00088D010008B0010020B007002072
:10029000B0030020B003002053EA020C00F0698094
:1002A0002DE9F04B4FF00006002B1FBFB3FA83F58A
:1002B00003FA05F424FA05F65E4012BF1643B2FABB
:1002C00082F502FA05F4C5F120051EBF22FA05FCED
:1002D00044EA0C04203556EA044C4FEA144418BF93
:1002E000641C4FF000084FF00009904271EB030CC2
:1002F00039D3002919BFB1FA81F701FA07F6B0FA2C
:1003000080F700FA07F6C7F120071EBF20FA07FCA6
:1003100046EA0C062037B6FBF4FCA7EB0507103FB6
:1003200007F01F0BCBF120062CFA06F60CFA0BFB9C
:1003300044BFB3460026202FA4BF5E464FF0000BFB
:100340005BEA060C08BF4FF0010B19EB0B0948EBF9
:100350000608ABFB027C06FB02CC0BFB03CCC01BEC
:1003600071EB0C01C1E70B46024641464846BDE829
:10037000F08B13B5084318BF4FF0FF300146AFF3C1
:100380000080BDE81C4070474FF0000200B51346E6
:1003900094469646203922BFA0E80C50A0E80C50A5
:1003A000B1F12001BFF4F7AF090728BFA0E80C5056
:1003B00048BF0CC05DF804EB890028BF40F8042B4F
:1003C00008BF704748BF20F8022B11F0804F18BFBC
:1003D00000F8012B7047704770477047754600F072
:1003E0002BF8AE4605006946534620F007008546C7
:1003F00018B020B5FFF73EFFBDE820404FF00006E3
:100400004FF000074FF000084FF0000BAC46ACE88F
:10041000C009ACE8C009ACE8C009ACE8C00921F0EB
:1004200007018D46704710B50446AFF300802046A3
:10043000BDE81040FFF709BF0048704718000020D2
:1004400001491820ABBEFEE72600020070470000FD
:10045000FEE7000070470000EFF3108072B600BFA7
:10046000FEE70000B0B5044600F0FAF8054640F299
:100470000800C2F200000078611C18BF044400BFED
:1004800000F0EEF8401BA042FAD3B0BD2DE9F04FCA
:1004900083B00C68002C00F0CF8000F1200240F205
:1004A000004E009240F60002C4F2010EC4F60002B3
:1004B0000723002500274FF00008904208BF0223C1
:1004C00001934DE040F20042C4F60002DDF80490D2
:1004D000904208BF4FF0010905F00C060F22B24010
:1004E0002CEA020209FA06F64FEA9803324344F86E
:1004F0002320DEF808204B6842EA0A0640F20C4C42
:10050000DC0258BF22EA0A06CEF80860C4F2010CE9
:10051000DCF800209C0242EA0A0658BF22EA0A06DA
:10052000CCF80060DEF804209C0342EA0A0658BFBB
:1005300022EA0A06CEF80460DEF80020DB0342EA75
:100540000A0658BF22EA0A06CEF800600C6808F1D5
:10055000010834FA08F207F1020705F104056BD02F
:10056000012202FA08FC14EA0C0AEFD0D1F804B018
:1005700003230BF00304621E03FA07F6012A6FEA55
:10058000060911D88268CE6802EA0902BE403243E9
:1005900082604268CBF3001622EA0C0206FA08F6E3
:1005A0003243426004E000BF032C01D103241EE06B
:1005B000C2688E6802EA0902BE403243022CC26061
:1005C00015D16FF0030202EA580B009A05F01C04E3
:1005D00052F80BC00F230E69A3402CEA0303A64078
:1005E000334342F80B30D1F804B00BF00304026837
:1005F00004FA07F302EA09021A431BF4403F0260BF
:10060000A4D041F26003C4F202031A68AEF57E740E
:1006100042F001021A601A68B0F1904F02F0010234
:100620000292029A28F0030254F802C07FF44AAF03
:100630004FF0000950E700BF03B000F000B830BC35
:10064000BDE8C08F426902EA0103914341EA0341D8
:10065000816170471823002A08BF2823C1507047C2
:1006600040F2A810C2F200000068704740F2080093
:1006700040F2A811C2F20000C2F2000100780A683C
:10068000104408607047000080B5032000F08CF82B
:10069000002000F009F800281CBF012080BD00F0F8
:1006A0002BF8002080BD0000B0B540F20805C2F272
:1006B00000052978F1B1044640F21000C2F20000B2
:1006C0004FF47A720068B2FBF1F1B0FBF1F000F088
:1006D000B5FF01460F2C4FF001000AD8002918BFC2
:1006E000B0BD4FF0FF302146002200F031F800206D
:1006F0006C60B0BD0120B0BD82B041F25800C4F2C0
:100700000200816841F001018160816801F001010E
:1007100001910199016841F080510160006800F089
:1007200080500090009802B070470000002848BF39
:10073000704700F01F01012202FA01F11C2202EAB7
:10074000D0004EF20012CEF200028150704700003D
:1007500010B54EF60C5CCEF2000CDCF80030C3F3A2
:10076000022E8EF00704042C28BF0424BEF10303DC
:100770004FF0FF3E0EFA04F438BF0023A143994026
:100780000EFA03F39A43114300F00F0200F16043A5
:100790000901043A03F564436244002848BF02F1AA
:1007A0000C03197010BD00004EF60C51CEF2000182
:1007B0000A684FF6FF031A4060F30A2242F0806095
:1007C00040F0FD700860704747F20001C4F200017C
:1007D0000A68B0F5007F02F4C06031D1B0F5007F47
:1007E0002CD00868012262F34A20086040F2100011
:1007F000C2F200000068322250434DF68362C4F218
:100800001B32A0FB0202900C4A69520511D5421C12
:100810000FD04A6952050CD558B14A69520508D51E
:10082000012806D04A69520503D50228A0F1040028
:10083000EAD14869400544BF032070470020704753
:10084000B0F5806FFAD00868022262F34A2008608F
:100850000020704747F20000C4F20000006800F476
:10086000C06070472DE9F04381B00446407841F202
:1008700088070007C4F202071ED5E06B80B1B0F50F
:10088000400F14D0B0F5000F40F0148157F87C0CE5
:1008900040F4803047F87C0C4FF4000007E000BFC4
:1008A000201D002102F0C8F9814638B9E06B396893
:1008B00021F44001084338604FF00009A078800718
:1008C00052D557F8300C5FEAC0080BD457F8300CFB
:1008D00040F0805047F8300C57F8300C00F0805052
:1008E0000090009847F20005C4F20005286840F423
:1008F00080702860FFF7B4FE064600BF2868C00578
:1009000008D4FFF7ADFE801B0228F7D94FF003098A
:1009100021E000BFB9F1000F1DD1B86810F440709C
:1009200011D0216D88420BD0B868B96820F44070AE
:1009300041F48031B960B96821F48031B960B860A0
:10094000C00740F0BF80B868216D20F440700843B4
:100950004FF00009B860B8F1000F05D457F8300C1B
:1009600020F0805047F8300C2168C8070ED1880766
:1009700014D488061AD4880520D4480526D44806FD
:100980002CD4C80532D4880438D449E03868226AA7
:1009900020F00300104338608807EAD53868626A9F
:1009A00020F00C00104338608806E4D53868A26A4D
:1009B00020F44060104338608805DED53868626BEB
:1009C00020F44020104338604805D8D53868A26B21
:1009D00020F44010104338604806D2D53868E26AE7
:1009E00020F4405010433860C805CCD53868226BDD
:1009F00020F4403010433860880411D53A68206CE8
:100A000022F040620243B0F1806F3A601ED0B0F134
:100A1000006F05D157F87C0C40F4801047F87C0C2F
:100A2000480327D53A68606C22F040620243B0F177
:100A3000806F3A6016D0B0F1006F1BD157F87C0C74
:100A400040F4801047F87C0C14E000BF201D012109
:100A500002F0F2F82168002818BF81464803E1D46B
:100A600008E000BF201D012102F0E6F821680028FF
:100A700018BF8146480410D53868A26C20F0405059
:100A80001043B2F1805F386007D1201D022102F0CF
:100A9000D3F82168002818BF8146080405D53868B6
:100AA000E16C20F0804008433860484601B0BDE862
:100AB000F08300BF4FF00109A07880073FF501AF38
:100AC00052E700BFFFF7CCFD064641F288354FF0F4
:100AD000030900BFB86880073FF535AFFFF7C0FDD9
:100AE000801BA842F6D936E72DE9F04381B00028F3
:100AF00000F08C8042F20009C4F202090446D9F8E1
:100B0000000000F0070081420CD9D9F8000020F065
:100B100007000843C9F80000D9F8000000F00700FA
:100B2000884273D1206841F2080610F00202C4F234
:100B300002060AD0A368376807F0F007BB4204D961
:100B4000376827F0F0073B433360C30734D0606851
:100B500056F8082C50B1022804D003280AD192017B
:100B60000AD453E0920307D450E000BF920703D4A5
:100B70004CE000BF520549D58846316821F0030199
:100B800008433060FFF76CFD054641F2883700BF2F
:100B90003068616800F00C00B0EB810F08D0FFF7FF
:100BA0005FFD401BB842F3D9032001B0BDE8F083DC
:100BB0002068414600F0020252B1A268336803F097
:100BC000F0039A4204D2336823F0F0031A433260F0
:100BD000D9F8002002F0070291420CD2D9F8002087
:100BE00022F007020A43C9F80020D9F8002002F0D9
:100BF00007028A420AD141070CD4000712D4306898
:100C0000716810F00C0019D11EE000BF012001B086
:100C1000BDE8F0833168E26821F4E061114331609E
:100C20000007ECD53068216920F4605040EAC1002B
:100C300030603068716810F00C0005D00C282BD1A2
:100C400001F00301012927D156F8081C042211F0F4
:100C500008016FF0070108BF8C21715808BF0822F6
:100C6000D14043F2F47201F00F01C0F6000252F8D5
:100C7000211000280A4618BF00220C2838D17068BD
:100C800000F00300022811D0032804BF41F2002124
:100C9000C0F27A010EE000BF04281FD0082823D13B
:100CA00041F20022C0F27A0222E000BF42F200418B
:100CB000C0F2F40170687268C0F30210C2F3062239
:100CC000514372680130B1FBF0F0C2F3416102227E
:100CD00002EB4101B0FBF1F20AE000BF42F2004238
:100CE000C0F2F40204E000BF002200210C28C6D0AC
:100CF000306843F2DA71C0F30310C0F60001085CFB
:100D000000F01F0022FA00F140F20C00C2F20000D5
:100D100040F210020068C2F20002116001B0BDE8AA
:100D2000F043FFF7C1BC000040F2100041F208019F
:100D3000C2F20000C4F202010068096843F2EA72DC
:100D4000C1F30221C0F60002515C01F01F01C8404E
:100D50007047000040F2100041F20801C2F20000AA
:100D6000C4F202010068096843F2EA72C1F3C221C9
:100D7000C0F60002515C01F01F01C840704700003E
:100D800041F20C01C4F2020151F8040C10F00C0203
:100D9000086805D00C2A2BD100F00300012827D1C8
:100DA00051F80C0C042310F008006FF00B0008BF82
:100DB0008820085808BF0823D84043F2F47300F095
:100DC0000F00C0F6000353F82030002A184618BF61
:100DD00000200C2A18BF7047086800F003000228A2
:100DE00010D0032804BF41F20023C0F27A030DE0C3
:100DF000042A1FD0082A23D141F20020C0F27A0031
:100E0000704700BF42F20043C0F2F40308680A686A
:100E1000C0F30210C2F30622096801305A43B2FB44
:100E2000F0F0C1F34161022202EB4101B0FBF1F0AD
:100E3000704700BF42F20040C0F2F400704700BFAC
:100E400000200023C5E70000002804BF01207047F0
:100E50002DE9F04383B041F200060446C4F20206D5
:100E6000B068F168227800F00C09D00601F00308A0
:100E70001ED42078C00700F08880B9F1080F00F078
:100E80007D80B9F10C0F08BFB8F1030F76D061680F
:100E90003068B1F5803F07D0B1F5A02F40F0528205
:100EA00040F480203060306840F48030306053E29D
:100EB000B9F1000F1CD0B9F10C0F08BFB8F1010F48
:100EC00016D0A1693068002900F0A08140F001002F
:100ED0003060FFF7C5FB05463068800700F1A88148
:100EE000FFF7BEFB401B02284FF00300F4D960E37C
:100EF0003068800703D5A069002800F00F83256AB9
:100F00003068000700F14A81D6F89400000900F02B
:100F1000F000854200F248813068B9F1000F40F0DE
:100F200008003060306820F0F00040EA05003060D2
:100F30007068E16920F47F4040EA0120706040F071
:100F4000B882B06DC00000F15582B06D40F08050A5
:100F5000B065B06D00F0805002900298FFF77AFC07
:100F6000B16D21F08051B165B0F5007F00F048828D
:100F7000802D40F2858203208DE200BF306880031F
:100F800003D56068002800F0C982207880072DD53D
:100F9000B9F1040F1CD0B9F10C0F08BFB8F1020F62
:100FA00016D0E1683068002900F0E68140F48070D6
:100FB0003060FFF755FB0546306840050FD4FFF75A
:100FC0004FFB401B02284FF00300F5D9F1E200BFB0
:100FD0003068400503D5E068002800F09F82706803
:100FE000216920F0F85040EA016070602078000725
:100FF00060D42078400779D42078800600F1B28050
:10100000A06A002800F01683022840F02381F068CF
:10101000E16A00F003028A4240F03481226B6FF0F3
:101020000F0300F0700103EB0212914240F02A819D
:10103000616B00F4FE42B2EB012F40F02381A16B03
:1010400000F07842B2EBC16F40F01C81E26B0023EC
:10105000CFF6E07303EA025200F4C001A2F50012D9
:10106000914240F00F81216C4FF07E4202EA016113
:1010700000F0C06001F17E41884240F00381306899
:10108000800100F1D782306840F080703060F068F5
:1010900040F08070F060FFF7E3FA044630688001AA
:1010A00000F1C882FFF7DCFA001B02284FF00300B2
:1010B000F4D97EE26169D6F89400002900F09080AE
:1010C00040F00100C6F89400FFF7CAFA054600BFD9
:1010D000D6F8940080078CD4FFF7C2FA401B022890
:1010E000F6D9032003B0BDE8F08300BFB06D5FEA1E
:1010F000C00808D4B06D40F08050B065B06D00F00D
:1011000080500090009847F20007C4F2000738684A
:10111000C00513D4386840F480703860FFF7A0FA37
:10112000054600BF3868C00508D4FFF799FA401B90
:1011300002284FF00300F5D93BE200BFA168D6F8C2
:101140009000012908D0052940F0DC8040F004001F
:10115000C6F89000D6F8900040F00100C6F8900064
:10116000DCE000BF616AD6F89800002900F0B48086
:1011700040F00100C6F89800FFF772FA054600BF7C
:10118000D6F8980080073FF53BAFFFF769FA401BA0
:1011900002284FF00300F3D90BE200BF306800F0E3
:1011A000F00085427FF6B8AEB06DC00000F18680D9
:1011B000B06D40F08050B065B06D00F0805001908F
:1011C0000198FFF747FBB16D21F08051B165B0F593
:1011D000007F79D0802D40F2E1800320E9E000BF5C
:1011E00020F00100C6F89400FFF73AFA054600BF68
:1011F000D6F8940080077FF5FCAEFFF731FA401B6C
:1012000002284FF00300F3D9D3E100BF20F0010022
:101210003060FFF725FA0546306880077FF529AE74
:10122000FFF71EFA401B02284FF00300F4D9C0E17B
:10123000306840F0080030603068D4E9071220F0D0
:10124000F00010433060706820F47F4040EA0120D5
:1012500070600EE6B9F10C0F00F06081306820F08C
:1012600080703060FFF7FCF9044600BF30688001F1
:1012700040F1EA80FFF7F4F9001B02284FF0030069
:10128000F4D996E1B9F10C0F00F0488130684001C3
:1012900000F14481306820F080703060FFF7E0F9A1
:1012A000054600BF3068800140F18681FFF7D8F91C
:1012B000401B02284FF00300F4D97AE1FFF7CAFA85
:1012C000B0F5007F7FF486AF812D71D30120A02D72
:1012D00088BF02206DE000BF20F00100C6F8980032
:1012E000FFF7BEF9054600BFD6F8980080077FF5E6
:1012F00087AEFFF7B5F9401B02284FF00300F3D982
:1013000057E100BF20F00100C6F89000D6F8900029
:10131000002920F00400C6F8900079D0FFF7A0F96A
:10132000054641F2883700BFD6F89000800700F1EB
:101330008180FFF795F9401BB842F5D9032003B02F
:10134000BDE8F08320F4803030603068002920F45C
:101350008020306000F08480FFF782F9054600BFEE
:10136000306880033FF511AEFFF77AF9401B64281F
:101370004FF00300F4D91CE120F480703060FFF7D7
:101380006FF90546306840057FF530AEFFF768F924
:10139000401B02284FF00300F4D90AE1A5F17000C8
:1013A000B0FA80F04009802D08BF022001E000BFA4
:1013B000002042F20001C4F202010A6822F0070292
:1013C00002440A60096801F00701814240F0A680EA
:1013D000306840F0080030603068D4E9071220F02F
:1013E000F00010433060706820F47F4040EA012034
:1013F00070605EE0FFF72EFAB0F5007F7FF4B8ADC5
:10140000812D47D30120A02D88BF022043E000BFDB
:10141000FFF726F9054641F2883700BFD6F890005D
:10142000800707D5FFF71CF9401BB8424FF00300B7
:10143000F4D9BEE0B8F1000F3FF5DEADB06D20F09D
:101440008050B065D8E500BFF0684FF6FC71CFF66C
:10145000EE610840F060002003B0BDE8F08300BFFB
:10146000FFF7FEF8054600BF306880037FF58DADBD
:10147000FFF7F6F8401B64284FF00300F4D998E01A
:10148000A5F17000B0FA80F04009802D08BF02205D
:1014900001E000BF002042F20001C4F202010A682C
:1014A00022F0070202440A60096801F00701814244
:1014B00034D1B068F16810F00C0005D00C2831D19F
:1014C00001F0030101292DD1314651F8942B12F07E
:1014D0000802324608BF0A464FF00401126808BFEE
:1014E000082122FA01F143F2F47201F00F01C0F673
:1014F000000252F8211000280A4618BF00220C28CA
:101500003CD1F06800F00300022815D0032804BF86
:1015100041F20021C0F27A0112E000BF012003B0C5
:10152000BDE8F08304281FD0082823D141F200220F
:10153000C0F27A0222E000BF42F20041C0F2F401A0
:10154000F068F268C0F30210C2F306225143F26859
:101550000130B1FBF0F0C2F34161022202EB410124
:10156000B0FBF1F20AE000BF42F20042C0F2F40226
:1015700004E000BF002200210C28C2D0B06843F272
:10158000DA71C0F30310C0F60001085C00F01F0020
:1015900022FA00F140F20C00C2F2000040F2100208
:1015A0000068C2F200021160FFF77EF800283FF4E5
:1015B00060AC03B0BDE8F083F06848F28C01C0F283
:1015C0009D1104F12C0700EA010C8ECF6FF00F0083
:1015D000D4E90F5400EB02100022CFF6E07241EA8A
:1015E0000C0102EA05520843A2F500124FF07E45B5
:1015F00040EA032005EA0465104305F17E4540EA10
:10160000C7602843F060306840F080703060F06858
:1016100040F08070F060FFF723F8044630688001E6
:1016200008D4FFF71DF8001B02284FF00300F5D97E
:10163000BFE700BF002003B0BDE8F083411E0020DB
:10164000B0EB116F1CBF012070474EF21002CEF2BA
:10165000000251604EF62351CEF20001F0230B70D0
:1016600007219060116070477047000070470000CC
:101670007047000090F83C20012A04BF0220704708
:1016800010B5D1E90232D1E900CE22F47C5223F424
:1016900070531A4348F2FF73CFF6F07303EA0E0358
:1016A00042EA030E0A692CF477234EEA030C22F473
:1016B00076224B6942EA0C021A438B6A22F47422A6
:1016C00023F4702342EA030C8B69D0F800E042F661
:1016D0000042C4F2010296454CEA03430FD123F0C5
:1016E0007C72D1E9073C496A0024CFF6F04404EA51
:1016F0000151114323F00072114341EA0C03002110
:10170000CEF8443080F83C10002010BD90F83C200A
:10171000012A4FF002022DD010B580F83D2002685A
:1017200042F6004C5368D2F808E0C4F2010C62455E
:1017300003D14C6823F4700323430C6823F0700337
:101740002343B2F1804F536007D044F20003C4F248
:1017500001039A4201D0624504D189682EF08003CA
:10176000194391600121002280F83D1080F83C204F
:10177000BDE8104010467047002804BF01207047A4
:10178000B0B590F83D1031B9002180F83C10044606
:1017900000F068F82046022180F83D10016842F60A
:1017A000004E0A68C4F2010E714502D0B1F1804FBB
:1017B00003D1846822F07002224343F6FF74C4F21E
:1017C000010444F2004CA142C4F2010C06DCB1F168
:1017D000804F0BD0714509D00CE000BF614505D0AA
:1017E00044F20004C4F20104A14203D1046922F4CA
:1017F000407222434368C56884697145CD628B623B
:1018000018BF614526D143690B630B6822F0800243
:1018100043F0040322430B6001234B610A6080F80C
:10182000483080F83E3080F83F3080F8403080F813
:10183000413080F8423080F8433080F8443080F8FE
:10184000453080F8463080F8473080F83D30002041
:10185000B0BD00BF44F20003C4F201039942D2D0EC
:10186000D3E7000080B582B0006844F20041C4F2C2
:10187000010188421ED044F20001C4F201018842F5
:1018800025D141F26000C4F202000168002241F457
:10189000803101600068002100F4803001900198DF
:1018A0001820FEF755FF182002B0BDE88040FEF773
:1018B0003DBF00BF41F26000C4F20200016841F484
:1018C00000310160006800F400300090009802B020
:1018D00080BD000090F83D10012929D1022180F837
:1018E0003D100168C868B1F1804F40F00100C86048
:1018F0000BD044F20000C4F20100814205D042F650
:101900000040C4F2010081420CD188680722C0F275
:1019100001020240062A4FF000000AD0B2F5803FD3
:1019200008BF7047086840F0010008600020704759
:10193000012070470146006841F21113C268C0F2ED
:10194000110322F00102C260026A1A4204D001228D
:10195000002081F83D207047026A40F244431A4259
:10196000F5D1026822F0010202600122002081F814
:101970003D20704790F83C20012A4FF0020200F011
:10198000878010B580F83D20D0F800E08822DEF88E
:101990000830CFF6FE721A40CEF808200B684F2BA5
:1019A00040DC1F2B5EDD202B60D0302B5ED0402B27
:1019B00040F0EC80D1F804C0C968DEF82030DEF8D1
:1019C000202042F60044C4F20104A64522F00102A0
:1019D000CEF820200BD044F20042C4F2010296451A
:1019E00005D044F20002C4F20102964505D1DEF8AA
:1019F000202022F00402CEF82020DEF8182022F069
:101A0000F00242EA011123F00A0242EA0C02CEF887
:101A10001810CEF82020DEF8081041F0470121F020
:101A200030012AE06F2B35DDB3F5005F00F09A80BE
:101A3000B3F5805F23D0702B40F0A880D1E901C3BB
:101A4000C968DEF8082043EA0C0322F47F4243EA27
:101A500001211143CEF80810DEF8081041F077019B
:101A60000BE000BF13B1102B40F09080DEF808109F
:101A700021F07001194341F00701CEF8081000224F
:101A8000012180F83D10002180F83C10BDE8104095
:101A900010467047502B2DD0602B77D1D1F804C061
:101AA000C968DEF82030DEF8202042F60044C4F297
:101AB0000104A64522F01002CEF8202005D1DEF860
:101AC000202022F04002CEF82020DEF8182022F458
:101AD000704242EA013123F0A00242EA0C12CEF831
:101AE0001810CEF82020DEF8081041F0670121F030
:101AF0001001C2E7D1F804C0C968DEF82030DEF872
:101B0000202042F60044C4F20104A64522F001025E
:101B1000CEF820200BD044F20042C4F201029645D8
:101B200005D044F20002C4F20102964505D1DEF868
:101B3000202022F00402CEF82020DEF8182022F027
:101B4000F00242EA011123F00A0242EA0C02CEF846
:101B50001810CEF82020DEF8081041F0570121F0CF
:101B600020018AE7D1E901C3C968DEF8082043EA09
:101B70000C0322F47F4243EA01211143CEF80810FE
:101B8000DEF8081041F4804177E700BF012277E7D3
:101B900070470000F0B581B004460068C56806696A
:101BA000B10717D515F0020114D06FF002010161E1
:101BB000012121778069800704D02046FFF7E8FFE4
:101BC00006E000BF204600F08FFA204600F05AFDE4
:101BD00000202077700719D515F0040016D0206872
:101BE0006FF00401016102212177806910F4407FC8
:101BF00004D02046FFF7CCFF06E000BF204600F0EF
:101C000073FA204600F03EFD00202077300717D5FC
:101C100015F0080014D020686FF00801016104215C
:101C20002177C069800703D02046FFF7B1FF05E0A8
:101C3000204600F059FA204600F024FD00202077CD
:101C4000F00619D515F0100016D020686FF01001BD
:101C5000016108212177C06910F4407F04D020463B
:101C6000FFF796FF06E000BF204600F03DFA204651
:101C700000F008FD00202077F00718BF15F00100E4
:101C800006D020686FF001010161204600F080FD60
:101C900016F4025F05F0800718BF002F02D1F0058F
:101CA00009D410E020686FF4025101612046FFF76B
:101CB000DDFCF00507D537B120686FF48071016154
:101CC0002046FFF7D1FC700609D515F0400006D07C
:101CD00020686FF040010161204600F063FDB0060E
:101CE0000CD515F0200009D021686FF020022046A5
:101CF0000A6101B0BDE8F040FFF7BABC01B0F0BD29
:101D000080B586B0006844F20042C4F201020021AE
:101D10009042CDE90411CDE90211019102D006B043
:101D200080BD00BF41F24C00C4F20200026842F0E4
:101D300001020260006800F001000090009840205D
:101D400001900220CDE902010E200491059001A925
:101D50004FF09040FEF79AFB06B080BD90F83C3003
:101D6000012B04BF022070474FEAB202052A00F29D
:101D70007F8170B5DFE812F00600FC008600C80025
:101D800052003E01026842F60045146A136A24F0CC
:101D9000020423F0010313625368D2F818C08E685E
:101DA000D1F800E0C4F20105AA4244EA06040BD0CF
:101DB00044F20046C4F20106B24205D044F20006E5
:101DC000C4F20106B24207D1166A24F0080426F0D4
:101DD00004061662CE683443AA420BD044F2004592
:101DE000C4F20105AA4205D044F20005C4F201057F
:101DF000AA4205D1D1E9055623F440732B4333435E
:101E00004FF68C75CFF6FE750CEA050646EA0E060F
:101E10005360966149685163146220E1026842F69A
:101E20000046D2F820C0136AC4F2010623F48033BE
:101E300013625368556D0C68D1F808E0B2420BD0BC
:101E400044F20046C4F20106B24205D044F2000654
:101E5000C4F20106B24204D14E6923F4803343EA4E
:101E600006234FF68C76CFF6FE76033635402543B3
:101E70005360556549682CF4003646EA0E43916577
:101E8000ECE000BF026842F60045146A136A24F4CD
:101E9000007423F4807313625368D2F81CE08E68D8
:101EA000D1F800C0C4F20105AA4244EA062408D1D0
:101EB000166A24F4006426F480661662CE6844EA4A
:101EC0000624AA420BD044F20045C4F20105AA42FE
:101ED00005D044F20005C4F20105AA4206D1D1E9B9
:101EE000055623F44053354343EA05134FF68C75EA
:101EF000CFF6FE750EEA050646EA0C065360D6617B
:101F00004968D1631462AAE0026842F60046D2F83A
:101F100020C0136AC4F2010623F48053136253688D
:101F2000D5690C68D1F808E0B2420BD044F2004603
:101F3000C4F20106B24205D044F20006C4F2010622
:101F4000B24204D14E6923F4804343EA861348F633
:101F5000FF46CFF6FF66354045EA04255360D5615C
:101F60002CF40056496846EA0E33116476E000BF4F
:101F7000026842F60045146A136A24F0200423F034
:101F8000100313625368D2F818E08E68D1F800C0CD
:101F9000C4F20105AA4244EA061408D1166A24F0E4
:101FA000800426F040061662CE6844EA0614AA426F
:101FB0000BD044F20045C4F20105AA4205D044F218
:101FC0000005C4F20105AA4206D1D1E9055623F461
:101FD0004063354343EA850348F6FF45CFF6FF6586
:101FE0000EEA050646EA0C2653609661496891633D
:101FF000146234E0026842F60046D2F820C0136A48
:10200000C4F2010623F4801313625368556D0C6803
:10201000D1F808E0B2420BD044F20046C4F2010607
:10202000B24205D044F20006C4F20106B24204D125
:102030004E6923F4802343EA862348F6FF46CFF611
:10204000FF6606F54076354045EA04255360556540
:1020500049682CF4001646EA0E53D165136200213C
:10206000BDE87040002280F83C200846704700BF61
:102070000121002280F83C200846704710B5044634
:10208000022084F83D00206841F21112016AC0F27A
:102090001102114208D1016A40F24442114203D1B7
:1020A000016821F001010160204600F095F800214F
:1020B000002084F8481084F83E1084F83F1084F81B
:1020C000401084F8411084F8421084F8431084F8DA
:1020D000441084F8451084F8461084F8471084F8BA
:1020E0003D1084F83C1010BD70470000002804BF6C
:1020F00001207047B0B590F83D1031B9002180F84B
:102100003C10044600F06AF82046022180F83D1099
:10211000016842F6004E0A68C4F2010E714502D011
:10212000B1F1804F03D1846822F07002224343F65C
:10213000FF74C4F2010444F2004CA142C4F2010C49
:1021400006DCB1F1804F0BD0714509D00CE000BF27
:10215000614505D044F20004C4F20104A14203D158
:10216000046922F4407222434368C568846971455A
:10217000CD628B6218BF614526D143690B630B6842
:1021800022F0800243F0040322430B6001234B61E1
:102190000A6080F8483080F83E3080F83F3080F8A0
:1021A000403080F8413080F8423080F8433080F889
:1021B000443080F8453080F8463080F8473080F869
:1021C0003D300020B0BD00BF44F20003C4F2010363
:1021D0009942D2D0D3E7000070470000704700005A
:1021E00090F83C30012B04BF022070474FEAB20246
:1021F000052A00F2C9812DE9F041DFE812F007005D
:102200002D01A100ED006100790100BF036842F6D5
:1022100000461D6A1A6A25F0020522F001021A62C0
:102220001A46D3F804C052F818EF8F68D1F800802E
:10223000C4F20106B34245EA07050BD044F2004759
:10224000C4F20107BB4205D044F20007C4F2010703
:10225000BB4207D11F6A25F0080527F004071F625B
:10226000CF683D43B3420BD044F20046C4F20106AE
:10227000B34205D044F20006C4F20106B34206D1CF
:10228000D1E905672CF44074264346EA070C4FF663
:102290008C74CFF6FE740EEA040747EA0807C3F809
:1022A00004C09F614F6809695F631D629F6947F0C1
:1022B00008079F619F6927F004079F6159E100BFEC
:1022C000036842F60047D3F820C01A6AC4F2010737
:1022D00022F480321A621A465D6852F8544FD1F8DF
:1022E00000E08E68BB420BD044F20047C4F2010705
:1022F000BB4205D044F20007C4F20107BB4204D13F
:102300004F6925F4803545EA07252CF4003747EA64
:1023100006474FF68C76CFF6FE760336264046EA21
:102320000E065D605E654E6809699E651F625F6DA1
:1023300047F008075F655F6D27F004075F6518E1E8
:10234000036842F600461C6A1A6A24F4007422F4F8
:1023500080721A621A465D6852F81CEF8F68D1F8D5
:1023600000C0C4F20106B34244EA072408D11F6A40
:1023700024F4006427F480671F62CF6844EA0724CE
:10238000B3420BD044F20046C4F20106B34205D07A
:1023900044F20006C4F20106B34206D1D1E9056752
:1023A00025F440553E4345EA06154FF68C76CFF6A8
:1023B000FE760EEA060747EA0C075D60DF614F68AC
:1023C0000969DF631C62DF6947F00807DF61DF69C5
:1023D00027F00407DF61CCE0036842F60047D3F83A
:1023E00020C01A6AC4F2010722F480521A621A4607
:1023F0005C6852F81C5FD1F800E08E68BB420BD0DD
:1024000044F20047C4F20107BB4205D044F2000782
:10241000C4F20107BB4204D14F6924F4804444EA6A
:1024200087142CF4005747EA063748F6FF46CFF6E4
:10243000FF662E4046EA0E265C60DE614E68096942
:102440001E641F62DF6947F40067DF61DF6927F4FC
:102450008067DF618CE000BF036842F600461C6ABB
:102460001A6A24F0200422F010021A621A465D68EB
:1024700052F818EF8F68D1F800C0C4F20106B342D9
:1024800044EA071408D11F6A24F0800427F04007AB
:102490001F62CF6844EA0714B3420BD044F20046EF
:1024A000C4F20106B34205D044F20006C4F20106AC
:1024B000B34206D1D1E9056725F440653E4345EABC
:1024C000860548F6FF46CFF6FF660EEA060747EA9E
:1024D0000C275D609F614F6809699F631C629F695B
:1024E00047F400679F619F6927F480679F613FE021
:1024F000036842F60047D3F820C01A6AC4F2010705
:1025000022F480121A621A465D6852F8544FD1F8CC
:1025100000E08E68BB420BD044F20047C4F20107D2
:10252000BB4205D044F20007C4F20107BB4204D10C
:102530004F6925F4802545EA87252CF4001747EAE2
:10254000065748F6FF46CFF6FF6606F5407626406A
:1025500046EA0E265D605E654E680969DE651F62AB
:102560005F6D47F400675F655F6D27F480675F65A7
:1025700009021368194311600021BDE8F0410022EF
:1025800080F83C20084670470121002280F83C205A
:1025900008467047002804BF01207047B0B590F886
:1025A0003D1031B9002180F83C10044600F068F875
:1025B0002046022180F83D10016842F6004E0A686C
:1025C000C4F2010E714502D0B1F1804F03D184688D
:1025D00022F07002224343F6FF74C4F2010444F275
:1025E000004CA142C4F2010C06DCB1F1804F0BD0CB
:1025F000714509D00CE000BF614505D044F20004EC
:10260000C4F20104A14203D1046922F440722243BE
:102610004368C56884697145CD628B6218BF6145A6
:1026200026D143690B630B6822F0800243F0040358
:1026300022430B6001234B610A6080F8483080F828
:102640003E3080F83F3080F8403080F8413080F8EC
:10265000423080F8433080F8443080F8453080F8CC
:10266000463080F8473080F83D300020B0BD00BFD4
:1026700044F20003C4F201039942D2D0D3E7000030
:10268000704700007047000080B5D9B10B1F4FEABA
:10269000B30E43224FF03F0CBEF1040F38BF0CEBDA
:1026A000B302825C012A1CBF012080BDBEF1030F72
:1026B0001ED8DFE80EF00319111500BF022280F8C2
:1026C0003F2018E090F83E20012A1CBF012080BD69
:1026D000022280F83E200EE0022280F841200AE02B
:1026E000022280F8422006E0022280F8402002E028
:1026F000022280F84320026801F01F000121136AC2
:1027000001FA00F023EA00011162116A084343F65E
:10271000FF71C4F201018A42106209DCB2F1804FFC
:1027200022D042F60040C4F2010082420CD028E0E0
:1027300044F20040C4F20100824205D044F200009D
:10274000C4F2010082421CD1506C44F20001C4F278
:10275000010140F400408A42506405D042F6004036
:10276000C4F2010082420CD190680721C0F201013D
:10277000014006294FF0000008D0B1F5803F08BFA6
:1027800080BD106840F001001060002080BD000096
:10279000006844F20001C4F20101884218BF70478A
:1027A00000F0E4B97047000010B5C0B10446C06F36
:1027B00028B9002084F87800204600F025F824206D
:1027C000E0672068616A026822F00102026011B1CC
:1027D000204600F0E9FA204600F00EFC10B101207E
:1027E00010BD00BF2168486820F4904048608868A8
:1027F00020F02A008860086840F0010220460A6044
:10280000BDE8104000F044BBF0B59BB0044600208A
:102810001A90CDE91800CDE9160001A80430502126
:10282000FDF7B2FD206844F20041C4F20001884285
:1028300002D01BB0F0BD00BF022501A80195FEF734
:1028400011F8002818BFFDF707FE41F24C00C4F252
:102850000200C16816AC41F40031C160C1680026B5
:1028600001F40031009100990168032741F0010152
:1028700001600068214600F00100009000980420EB
:10288000CDE9160507201A904FF090401896199739
:10289000FDF7FCFD4FF4004016A9E1C14FF0904058
:1028A00021461A97FDF7F2FD1BB0F0BDFEE70000D0
:1028B000FEE70000FEE70000704700002DE9F0434E
:1028C0008DB041F26000C4F20200016840F2880855
:1028D00041F4803101600168C2F2000801F48031E6
:1028E00006910699016840F2D40541F40031016077
:1028F0000168C2F2000501F400310691069944F224
:102900000001C4F20101C8F8001001F580612960DE
:1029100050F8141C01AE41F0010140F8141C50F8AD
:10292000140C022400F00100069006980420019087
:1029300000274FF00E094FF0904031460294CDE948
:102940000374CDF81490FDF7A1FD402001A991C1B9
:102950004FF090403146CDE90449FDF797FD2846F8
:10296000FFF78CFB40F24A30C5E903072846C5E96A
:102970000177C5E90577FEF7FFFE2846FFF7B6FBAE
:10298000002818BFFDF768FD60200690D220079050
:1029900006AD40F2D400C2F2000029460022CDE983
:1029A0000877CDE90A770C97FFF7D8F9002818BF08
:1029B000FDF752FD40F2D400C2F2000000210835BC
:1029C0000027FFF761FE002818BFFDF745FD4046D0
:1029D000FFF754FB1F204FF45E76C8E9010740461D
:1029E000C8E90367C8E90577FEF7C6FE4046FFF76A
:1029F0007DFB002818BFFDF72FFD40F28804002062
:102A0000C2F20004CDE90606C5E90000C5E90200EE
:102A1000286106A920460022FFF7A0F9002818BF68
:102A2000FDF71AFD182000210022FDF791FE182065
:102A3000FDF77CFE206841F21112016AC0F211021A
:102A4000114203D00DB0BDE8F08300BF016A40F22F
:102A500044421142F6D1016821F0010101600DB03C
:102A6000BDE8F08370B540F20004C2F2000400BF7C
:102A7000636833B9636823B9636813B96368002B6B
:102A8000F6D040F278054FF44053C2F200054FF003
:102A9000000C3F2988BF4FF40053C5F80CC042EA30
:102AA000801040EA0302207801F03F011143A98021
:102AB00050B1042800F0030E08D200200024BEF11B
:102AC000000F2AD144E000BF002241E000F0FC04E6
:102AD0000020002221FA00F3DE074FF0800608BF35
:102AE000402646EA02229E074FF0200658BF1026D5
:102AF00032445E074FF0080658BF04261B073244D5
:102B00004FF0020300F1040058BF012384421A442D
:102B1000E0D19400BEF1000F1AD021FA00F0022299
:102B2000C10708BF01220221BEF1010F42EA0402DF
:102B30000ED0830758BF0121BEF1020F41EA820285
:102B400006D040074FF0020058BF012040EA820241
:102B50000120AA60E86040F28800C2F2000001682B
:102B6000C1F824C0BDE87040FEF7B4BE70B540F2B5
:102B70007805C2F20005E8684FF68F7640F2000152
:102B8000CFF6FE760128C2F2000104D128784A78F7
:102B9000B0EB420F32D940F288040120C2F20004A7
:102BA00048602046FEF7C6FE002040F2D401E860EF
:102BB000C2F2000109682870086A41F2111220F07F
:102BC000010008628869C0F21102304040F0400004
:102BD0008861086A40F0010008622068016A1142B9
:102BE00000D070BD016A40F24442114218BF70BD6E
:102BF000016821F00101016070BD00BF00224A6040
:102C000040F2D401C2F200010968AA680B6AC2400E
:102C100023F001030B628B69D2074FF0500203EAE5
:102C2000060308BF40221A438A610A6A013042F053
:102C300001020A62287070BDF0B581B041F2000552
:102C4000C4F20205EA68920714D0EA68036802F049
:102C500003029A424FF0010208D13BB1EA6843688F
:102C6000C2F3021201329A422AD00122104601B068
:102C7000F0BD00BF0268032A10D0022A06D0012A44
:102C800007D12B689B0710D403E000BF2B685B05BE
:102C90000BD40122104601B0F0BD00BF2B689B038E
:102CA0005CBF2B685FEA4333F3D5EB6847686FF08E
:102CB0000F0623F0730306EB07173B431A43EA6042
:102CC000064628680F4620F080602860FDF7C8FCA3
:102CD000044600BF2868000108D5FDF7C1FC001BB1
:102CE0000228F7D90322104601B0F0BD2969B06867
:102CF0003246012F4FEA002008D0BFB948F2FF0347
:102D0000D268C0F2FF731940D2061BE048F2FF03FD
:102D1000CFF6FF1303F1B463194012690023CFF615
:102D2000E07303EA0252A2F500120BE048F2FF033F
:102D3000CFF6FF13526919404FF07E4303EA026257
:102D400002F17E42084310432861286840F0806009
:102D50002860FDF785FC04462868000108D4FDF7CB
:102D60007FFC001B0228F7D90322104601B0F0BDFA
:102D7000B0692969002208432861104601B0F0BDFE
:102D800070470000FDF772BC4EF68850CEF200008E
:102D9000016841F4700101607047000040F2880052
:102DA000C2F20000FEF7F6BE416A0A070CD4CA0759
:102DB00015D18A071ED44A0727D4CA0630D48A06FA
:102DC00039D44A0642D457E00268D0F834C0536878
:102DD00023F4004343EA0C035360CA07E9D00268B6
:102DE000D0F828C0536823F4003343EA0C0353603F
:102DF0008A07E0D50268D0F82CC0536823F48033EA
:102E000043EA0C0353604A07D7D50268D0F830C0B4
:102E1000536823F4802343EA0C035360CA06CED5DB
:102E20000268D0F838C0936823F4805343EA0C0357
:102E300093608A06C5D50268D0F83CC0936823F435
:102E4000005343EA0C0393604A0615D5D0F800C03E
:102E5000036CDCF80420B3F5801F22F4801242EAF0
:102E60000302CCF8042007D1DCF80420436C22F4E0
:102E7000C0021A43CCF80420090658BF7047016805
:102E8000806C4A6822F400221043486070470000BA
:102E9000B0B582B004460020C4F88400FDF7E0FB22
:102EA000216805460A68120737D56FF07E4C204628
:102EB0004FF4001100222B46CDF800C000F09CF921
:102EC00050B300BF206850E8000F216820F0800058
:102ED00041E80002DAB1206850E8000F216820F0D4
:102EE000800041E8000292B1206850E8000F21689C
:102EF00020F0800041E800024AB1206850E8000F4D
:102F0000216820F0800041E80002002ADAD1032085
:102F100020217C226AE000BF2168086840075DD557
:102F20006FF07E4C20464FF4800100222B46CDF8F6
:102F300000C000F061F9002850D000BF206850E8C0
:102F4000000F216820F4907041E80002BAB32068B5
:102F500050E8000F216820F4907041E8000272B33D
:102F6000206850E8000F216820F4907041E80002CA
:102F70002AB3206850E8000F216820F4907041E8DF
:102F80000002002ADAD11AE0206850E8020F216816
:102F900020F0010041E80202DAB1206850E8020F97
:102FA000216820F0010041E8020292B1206850E857
:102FB000020F216820F0010041E802024AB12068B6
:102FC00050E8020F216820F0010041E80202002AC7
:102FD000DAD103202021802208E000BF2020E06712
:102FE000C4F880000021642200202166A150002145
:102FF00084F8781002B0B0BDB0B5054605F10804FC
:103000001ECC0068194341EA0403D5F81CE00468AB
:1030100046F6F311CEF6FF712140194341EA0E0145
:103020000160416848F2000C21F4405111434160B5
:10303000AA69C4F2000C60451CBF296A0A43816872
:1030400021F43061114344F20042C4F20002904284
:10305000816017D060450DD043F60001C4F2010134
:1030600088424BD141F28801C4F202010B685EA292
:1030700012E000BF41F28801C4F2020109688B0A24
:1030800006E000BF41F28801C4F2020109688B0822
:1030900043F62402C0F6000203F0030152F8213087
:1030A000604542F20040C0F2F4002ED0BEF5004F61
:1030B00012D1082B4FF0010100F29180DFE803F0FC
:1030C0000656688F5E8F8F8F660000BFFDF72CFE5F
:1030D000002840F05D807EE0082B4FF0010100F2F7
:1030E0007E80DFE803F005476B7C4F7C7C7C6900C9
:1030F000FDF71AFE002861D16DE000BF1023604586
:1031000042F20040C0F2F400D0D1082B4FF0010190
:1031100065D8DFE803F005640F64096464640D009A
:10312000FDF702FE30B956E0FDF72AFE10B952E075
:103130004FF400406A6802EB420188424FF00101FF
:103140004DD3130398424AD8010E000210EB5200EF
:1031500041F100010023FDF79FF84FF60052A0F562
:103160004071C0F20F02914233D337E0FDF7F2FD18
:1031700070B930E0FDF7EEFD00BB2CE0FDF700FE7E
:1031800030B928E0FDF7FCFDC0B924E04FF4004061
:1031900069684A0802EB4000B0FBF1F04FF6EF72AD
:1031A000A0F11001914219D84FF6F0710140C0F31F
:1031B000420008440DE000BF4FF4004069684FF63C
:1031C000EF7200EB5100B0FBF1F0A0F11001914261
:1031D00004D82968C860002101E000BF0121002255
:1031E0000846AA66EA66B0BD0100000004000000BF
:1031F00002000000080000002DE9F0418046006850
:103200001546C2690E461140891BB1FA81F1490980
:103210008D4223D1069C2CB3611C29D1C169314058
:10322000891BB1FA81F149098D4217D1C169314039
:10323000891BB1FA81F149098D420FD1C169314031
:10324000891BB1FA81F149098D4207D1C169314029
:10325000891BB1FA81F149098D42DFD00020BDE818
:10326000F08100BFFDF7FCF90320BDE8F08100BF4D
:103270001F4607E0C0693040801BB0FA80F040096B
:103280008542EBD1FDF7ECF9C01BA04200F2B08003
:10329000D8F8000001684907ECD5402EEAD0802E0E
:1032A000E8D0C169090700F1A780C1690905E1D526
:1032B0004FF400610162D8F8000050E8000FD8F820
:1032C000001020F4907041E80002002A43D0D8F8A2
:1032D000000050E8000FD8F8001020F4907041E88A
:1032E0000002C2B3D8F8000050E8000FD8F8001070
:1032F00020F4907041E800026AB3D8F8000050E86A
:10330000000FD8F8001020F4907041E80002002A65
:10331000D1D120E0D8F8000050E8020FD8F8001012
:1033200020F0010041E802020AB3D8F8000050E89A
:10333000020FD8F8001020F0010041E80202B2B1FB
:10334000D8F8000050E8020FD8F8001020F0010073
:1033500041E802025AB1D8F8000050E8020FD8F84C
:10336000001020F0010041E80202002AD2D1D8F872
:10337000600001282CD1D8F8000050E8000FD8F8E0
:10338000001020F0100041E800020AB3D8F8000055
:1033900050E8000FD8F8001020F0100041E80002BB
:1033A000B2B1D8F8000050E8000FD8F8001020F0B3
:1033B000100041E800025AB1D8F8000050E8000FB0
:1033C000D8F8001020F0100041E80002002AD2D105
:1033D00020200021C8F88000C8F86010C8F86810E4
:1033E000C8F88400032088F87810BDE8F08100BF99
:1033F0000320BDE8F08100BF08210162D8F8000079
:1034000050E8000FD8F8001020F4907041E8000256
:10341000002A44D0D8F8000050E8000FD8F8001077
:1034200020F4907041E80002CAB3D8F8000050E8D8
:10343000000FD8F8001020F4907041E8000272B339
:10344000D8F8000050E8000FD8F8001020F4907071
:1034500041E80002002AD1D121E000BFD8F80000E5
:1034600050E8020FD8F8001020F0010041E80202F5
:103470000AB3D8F8000050E8020FD8F8001020F086
:10348000010041E80202B2B1D8F8000050E8020F92
:10349000D8F8001020F0010041E802025AB1D8F833
:1034A000000050E8020FD8F8001020F0010041E8B9
:1034B0000202002AD2D1D8F8600001282CD1D8F815
:1034C000000050E8000FD8F8001020F0100041E88C
:1034D00000020AB3D8F8000050E8000FD8F8001036
:1034E00020F0100041E80002B2B1D8F8000050E826
:1034F000000FD8F8001020F0100041E800025AB187
:10350000D8F8000050E8000FD8F8001020F01000A4
:1035100041E80002002AD2D12020C8F88000002013
:103520000821C8F86000C8F86800C8F8841088F856
:1035300078000120BDE8F081FEE7000098B0FDF7BB
:10354000A3F8684604302421FCF71EFF4FF40070F6
:10355000FDF73AF920B1EFF3108072B6FEE700BF35
:103560001020602100900120089102210690CDE9F1
:103570000A100C9028200D9007200024CDE90E01A0
:10358000684607941091FDF75FFC28B1EFF31080B7
:1035900072B600BFFEE700BF0F2011900320CDE9F7
:1035A000120411A80421CDE91444FDF79DFA28B1B5
:1035B000EFF3108072B600BFFEE700BF002641F2B5
:1035C0004C000496CDE90266CDE90066C4F2020023
:1035D000016840F2004441F0040101600168C4F652
:1035E000000401F0040111911199016844F20045B1
:1035F00041F0010101600168002201F00101119117
:1036000011990168C4F2000541F0020101600068EF
:10361000082100F002001190119820460827FDF7BC
:1036200019F80120CDE90106694620460097039666
:10363000FCF72CFF40F22010C2F200004FF4E13101
:103640000C22C0E90051C0E90266C0E90462C0E989
:103650000666C0E90866FFF7A7F828B1EFF3108007
:1036600072B600BFFEE700BF40F2880005F57C415E
:10367000C2F200004FF45E730396CDE90166129624
:103680001F2280E84600C0E90336C0E90566FEF760
:1036900073F828B1EFF3108072B600BFFEE700BFE9
:1036A0004FF48050009040F28800C2F2000069465A
:1036B000FEF760F920B1EFF3108072B6FEE700BFAD
:1036C00040F288000026C2F2000011A9119613965C
:1036D000FEF71CF820B1EFF3108072B6FEE700BFD2
:1036E00040F2D40005F58031C2F2000040F24A32C7
:1036F000CDE90866CDE90666C0E90016C0E90262B8
:10370000C0E904668661FEF737F828B1EFF3108050
:1037100072B600BFFEE700BF40F2D400C2F2000064
:10372000FEF738FF20B1EFF3108072B6FEE700BF5E
:1037300060201190D220129040F2D4000025C2F2F5
:10374000000011A90022CDE91355CDE915551795B3
:10375000FEF746FD20B1EFF3108072B6FEE700BF22
:103760004FF40050059040F2D400C2F200006946C8
:103770000495CDE90255CDE900550A95FDF77AFF8C
:1037800020B1EFF3108072B6FEE700BF40F2D40024
:10379000C2F20000FEF7B4FAFFF790F84FF4FA70A7
:1037A000FCF760FE4FF47A70FCF75CFE20460821BF
:1037B000FCF748FF00200C210022FFF753F9F1E746
:1037C000F1EE100A4FF6FF71C0F2C03120EA01009D
:1037D00040F04070E1EE100A704700000000000069
:1037E00000000102030406070809000000000102AE
:1037F00003040000A0860100400D0300801A0600AB
:1038000000350C0040420F0080841E0000093D007E
:1038100000127A000024F40000366E010048E8012E
:10382000006CDC0200000000040000000200000048
:1038300008000000583800080000002018000000B0
:10384000F0010008703800081800002098070000F8
:1038500010020008000000000E40000001000000FF
:10386000010000001000000000093D000000000001
:040000050800018D61
:00000001FF
