:020000040800F2
:1000000070070020690200087926000871260008A0
:1000100075260008D90700085D33000800000000BD
:10002000000000000000000000000000B1290008EE
:10003000DD070008000000007D260008B529000843
:10004000830200088302000883020008830200087C
:10005000830200088302000883020008830200086C
:10006000830200088302000883020008830200085C
:10007000830200088302000883020008830200084C
:10008000830200088302000883020008830200083C
:10009000830200088302000883020008830200082C
:1000A000830200088302000883020008830200081C
:1000B000712A000800000000000000008302000810
:1000C0008302000800000000000000008302000816
:1000D0000000000083020008830200080000000006
:1000E00083020008830200080000000000000000F6
:1000F0000000000000000000000000000000000000
:100100000000000000000000000000008302000862
:1001100000000000000000008302000883020008C5
:10012000830200088302000883020008830200089B
:100130008302000800000000000000000000000032
:10014000830200088302000883020008830200087B
:10015000830200088302000883020008830200086B
:1001600083020008830200088302000800000000E8
:100170008302000883020008000000000000000065
:1001800083020008830200088302000800F002F8DE
:1001900000F05AF814A696E8000CB244B344DA45CD
:1001A00001D100F051F8BAE80F000FA696E8300030
:1001B000A5EB040504EB0607AAEB0704A7F101076A
:1001C0004FEA15154FEA3414A4F10104AC4201D3EF
:1001D00000F03AF813F0010F18BFFB1A43F00103C7
:1001E00000F001F8DBE718474835000068350000EB
:1001F000103A24BF78C878C1FAD8520724BF30C853
:1002000030C144BF04680C607047000070470000B4
:100210000023002400250026103A28BF78C1FBD80F
:10022000520728BF30C148BF0B607047642900F0F7
:10023000F180782900F02A81002070471FB503F073
:10024000E2F91FBD10B510BD00F08BFA1146FFF7A3
:10025000F5FF03F085F800F0A9FA03B4FFF7F2FF09
:1002600003BC00F0B1FA0000094880470948004784
:10027000FEE7FEE7FEE7FEE7FEE7FEE7FEE7FEE756
:10028000FEE7FEE704480549054A064B70470000B3
:100290005D2A00088D010008700100207007002011
:1002A000700300207003002053EA020C00F0698004
:1002B0002DE9F04B4FF00006002B1FBFB3FA83F57A
:1002C00003FA05F424FA05F65E4012BF1643B2FAAB
:1002D00082F502FA05F4C5F120051EBF22FA05FCDD
:1002E00044EA0C04203556EA044C4FEA144418BF83
:1002F000641C4FF000084FF00009904271EB030CB2
:1003000039D3002919BFB1FA81F701FA07F6B0FA1B
:1003100080F700FA07F6C7F120071EBF20FA07FC96
:1003200046EA0C062037B6FBF4FCA7EB0507103FA6
:1003300007F01F0BCBF120062CFA06F60CFA0BFB8C
:1003400044BFB3460026202FA4BF5E464FF0000BEB
:100350005BEA060C08BF4FF0010B19EB0B0948EBE9
:100360000608ABFB027C06FB02CC0BFB03CCC01BDC
:1003700071EB0C01C1E70B46024641464846BDE819
:10038000F08B13B5084318BF4FF0FF300146AFF3B1
:100390000080BDE81C4070470FB41CB5084B06AA8E
:1003A0007B4469460090059800F0C3F9044600209C
:1003B000694600F0D1F920461CBC5DF814FB000032
:1003C000B503000070B5044685690068C10601D513
:1003D000302600E02026C00707D070BDD4E90121F7
:1003E00030469047206A401C20626D1EF6D570BDD5
:1003F00070B5044685690078C00707D170BDD4E99F
:10040000012120209047206A401C20626D1EF6D5F5
:1004100070BD00002DE9F0410646002410687529E2
:10042000314616A510D0AFF30080002802DA404212
:1004300013A507E031688A0701D512A502E0490734
:1004400004D511A5012401E0AFF3008000210A22A8
:1004500006F1240709E0B0FBF2FCB0FBF2F302FB6B
:100460001C00303078541846491C0028F3D123462C
:100470002A463046BDE8F04100F0FDB8000000001B
:100480002D0000002B0000002000000070B5044685
:100490000D4621461068AFF300802188090502D57A
:1004A0000F4A7A4402E00E4A7A440E32002104F1E7
:1004B000240305E000F00F060009965D5E54491C18
:1004C0000028F7D120780023000704D5702D02D032
:1004D00009B1022311322046BDE8704000F0CBB8CC
:1004E0007A3100002DE9F05F894604464FF0000A9A
:1004F000DFF824B1FB44C0F820A02046E16888471B
:1005000000287DD0252806D0D4E901219047206A13
:10051000401C2062F1E700255F462046E1688847DD
:100520002028064607DB312E05D2B81910F8200C1A
:1005300008B10543F1E7A80701D525F00405C4F883
:100540001CA00027C4F818A02A2E09D0304603F0BA
:1005500053F838B304EB8708303EC8F8186019E048
:1005600059F8041B204604EB87029161E168884733
:10057000012F064618D1E069002820DA25F0200571
:100580001DE0D8F8180000EB800006EB4000303882
:10059000C8F818002046E1688847064603F02CF8A2
:1005A0000028EED1012F0AD02E2E08D12046E16876
:1005B00088477F1C0646022F45F02005C4DBA06952
:1005C000002803DA404245F00105A061E80701D0A8
:1005D00025F01005A6B1A6F14100192802D8203651
:1005E00045F400654A463146204625604D46FFF7F2
:1005F0001DFE60B1012807D0ED1D25F0070000E0C9
:1006000007E000F1080978E705F1040975E73046CD
:100610007AE7206A00F002B85031000030BCBDE833
:10062000C09F4FF0000200B513469446964620390D
:1006300022BFA0E80C50A0E80C50B1F12001BFF49B
:10064000F7AF090728BFA0E80C5048BF0CC05DF801
:1006500004EB890028BF40F8042B08BF704748BF4F
:1006600020F8022B11F0804F18BF00F8012B7047C3
:100670007047704770472DE9F0470D4699469246FE
:10068000044600F124080168880604D5E06921F0D9
:100690001001216000E00120A84201DD471B00E0BD
:1006A0000027A1697A1902EB0900081AA0612078D5
:1006B000C00602D42046FFF785FE002608E0D4E9F4
:1006C00001211AF806009047206A401C761C20621F
:1006D0004E45F4DB2078C0060AD52046FFF772FEAF
:1006E00006E0D4E9012130209047206A401C2062B6
:1006F000381EA7F10107F4DC07E0D4E9012118F85E
:1007000005009047206A401C2062281EA5F10105C3
:10071000F3DC2046FFF76CFE2078000602D50220AD
:10072000BDE8F0870120FBE701694A1C02610878F7
:10073000704700B58FB0CDE9013100210591054921
:100740007944CDE9031011466846FFF7CBFE0FB0A0
:1007500000BD0000E5FFFFFF0A6802F8010B0A6018
:100760007047754600F02CF8AE46050069465346C2
:1007700020F00700854618B020B5FFF783FDBDE8DF
:1007800020404FF000064FF000074FF000084FF0F8
:10079000000BAC46ACE8C009ACE8C009ACE8C00945
:1007A000ACE8C00921F007018D46704710B504463A
:1007B000AFF300802046BDE81040FFF74EBD0000BB
:1007C000004870471000002001491820ABBEFEE72A
:1007D0002600020070470000FEE70000704700009E
:1007E000EFF3108072B600BFFEE700002DE9F04F76
:1007F00083B00C68002C00F0CF8000F1200240F2A2
:10080000004E009240F60002C4F2010EC4F600024F
:100810000723002500274FF00008904208BF02235D
:1008200001934DE040F20042C4F60002DDF804906E
:10083000904208BF4FF0010905F00C060F22B240AC
:100840002CEA020209FA06F64FEA9803324344F80A
:100850002320DEF808204B6842EA0A0640F20C4CDE
:10086000DC0258BF22EA0A06CEF80860C4F2010C86
:10087000DCF800209C0242EA0A0658BF22EA0A0677
:10088000CCF80060DEF804209C0342EA0A0658BF58
:1008900022EA0A06CEF80460DEF80020DB0342EA12
:1008A0000A0658BF22EA0A06CEF800600C6808F172
:1008B000010834FA08F207F1020705F104056BD0CC
:1008C000012202FA08FC14EA0C0AEFD0D1F804B0B5
:1008D00003230BF00304621E03FA07F6012A6FEAF2
:1008E000060911D88268CE6802EA0902BE40324386
:1008F00082604268CBF3001622EA0C0206FA08F680
:100900003243426004E000BF032C01D103241EE007
:10091000C2688E6802EA0902BE403243022CC260FD
:1009200015D16FF0030202EA580B009A05F01C047F
:1009300052F80BC00F230E69A3402CEA0303A64014
:10094000334342F80B30D1F804B00BF003040268D3
:1009500004FA07F302EA09021A431BF4403F02605B
:10096000A4D041F26003C4F202031A68AEF57E74AB
:1009700042F001021A601A68B0F1904F02F00102D1
:100980000292029A28F0030254F802C07FF44AAFA0
:100990004FF0000950E700BF03B000F000B830BCD2
:1009A000BDE8C08F1823002A08BF2823C150704714
:1009B00040F26C10C2F200000068704740F2000084
:1009C00040F26C11C2F20000C2F2000100780A6825
:1009D000104408607047000080B5032000F08CF8D8
:1009E000002000F009F800281CBF012080BD00F0A5
:1009F0002BF8002080BD0000B0B540F20005C2F227
:100A000000052978F1B1044640F20800C2F2000066
:100A10004FF47A720068B2FBF1F1B0FBF1F000F034
:100A2000C9FF01460F2C4FF001000AD8002918BF5A
:100A3000B0BD4FF0FF302146002200F031F8002019
:100A40006C60B0BD0120B0BD82B041F25800C4F26C
:100A50000200816841F001018160816801F00101BB
:100A600001910199016841F080510160006800F036
:100A700080500090009802B070470000002848BFE6
:100A8000704700F01F01012202FA01F11C2202EA64
:100A9000D0004EF20012CEF20002815070470000EA
:100AA00010B54EF60C5CCEF2000CDCF80030C3F34F
:100AB000022E8EF00704042C28BF0424BEF1030389
:100AC0004FF0FF3E0EFA04F438BF0023A1439940D3
:100AD0000EFA03F39A43114300F00F0200F1604352
:100AE0000901043A03F564436244002848BF02F157
:100AF0000C03197010BD00004EF60C51CEF200012F
:100B00000A684FF6FF031A4060F30A2242F0806041
:100B100040F0FD700860704747F20001C4F2000128
:100B20000A68B0F5007F02F4C06031D1B0F5007FF3
:100B30002CD00868012262F34A20086040F20800C5
:100B4000C2F200000068322250434DF68362C4F2C4
:100B50001B32A0FB0202900C4A69520511D5421CBF
:100B60000FD04A6952050CD558B14A69520508D5CB
:100B7000012806D04A69520503D50228A0F10400D5
:100B8000EAD14869400544BF032070470020704700
:100B9000B0F5806FFAD00868022262F34A2008603C
:100BA0000020704747F20000C4F20000006800F423
:100BB000C060704747F20000C4F20000016841F4D1
:100BC000807101607047000041F20000C4F2020031
:100BD000016841F004010160704700002DE9F04315
:100BE00081B00446407841F288070007C4F202074A
:100BF0001ED5E06B80B1B0F5400F14D0B0F5000FFA
:100C000040F0148157F87C0C40F4803047F87C0C9D
:100C10004FF4000007E000BF201D002101F024FE7A
:100C2000814638B9E06B396821F4400108433860E7
:100C30004FF00009A078800752D557F8300C5FEAD2
:100C4000C0080BD457F8300C40F0805047F8300CF7
:100C500057F8300C00F080500090009847F20005E3
:100C6000C4F20005286840F480702860FFF7A0FEF9
:100C7000064600BF2868C00508D4FFF799FE801B10
:100C80000228F7D94FF0030921E000BFB9F1000FA6
:100C90001DD1B86810F4407011D0216D88420BD07E
:100CA000B868B96820F4407041F48031B960B9681F
:100CB00021F48031B960B860C00740F0BF80B868E7
:100CC000216D20F4407008434FF00009B860B8F17E
:100CD000000F05D457F8300C20F0805047F8300C46
:100CE0002168C8070ED1880714D488061AD488054D
:100CF00020D4480526D448062CD4C80532D488040C
:100D000038D449E03868226A20F003001043386084
:100D10008807EAD53868626A20F00C001043386012
:100D20008806E4D53868A26A20F440601043386031
:100D30008805DED53868626B20F4402010433860A7
:100D40004805D8D53868A26B20F4401010433860AD
:100D50004806D2D53868E26A20F440501043386023
:100D6000C805CCD53868226B20F440301043386079
:100D7000880411D53A68206C22F040620243B0F139
:100D8000806F3A601ED0B0F1006F05D157F87C0C2F
:100D900040F4801047F87C0C480327D53A68606C13
:100DA00022F040620243B0F1806F3A6016D0B0F199
:100DB000006F1BD157F87C0C40F4801047F87C0C76
:100DC00014E000BF201D012101F04EFD2168002824
:100DD00018BF81464803E1D408E000BF201D01216F
:100DE00001F042FD2168002818BF8146480410D553
:100DF0003868A26C20F040501043B2F1805F386038
:100E000007D1201D022101F02FFD2168002818BF05
:100E10008146080405D53868E16C20F0804008431D
:100E20003860484601B0BDE8F08300BF4FF00109CB
:100E3000A07880073FF501AF52E700BFFFF7B8FD8C
:100E4000064641F288354FF0030900BFB8688007B5
:100E50003FF535AFFFF7ACFD801BA842F6D936E76A
:100E60002DE9F04381B0002800F08C8042F20009A7
:100E7000C4F202090446D9F8000000F007008142DC
:100E80000CD9D9F8000020F007000843C9F8000089
:100E9000D9F8000000F00700884273D1206841F2C1
:100EA000080610F00202C4F202060AD0A3683768EE
:100EB00007F0F007BB4204D9376827F0F0073B433F
:100EC0003360C30734D0606856F8082C50B102284C
:100ED00004D003280AD192010AD453E0920307D424
:100EE00050E000BF920703D44CE000BF520549D543
:100EF0008846316821F0030108433060FFF758FD50
:100F0000054641F2883700BF3068616800F00C0088
:100F1000B0EB810F08D0FFF74BFD401BB842F3D96F
:100F2000032001B0BDE8F0832068414600F00202D2
:100F300052B1A268336803F0F0039A4204D23368D6
:100F400023F0F0031A433260D9F8002002F00702C0
:100F500091420CD2D9F8002022F007020A43C9F8C6
:100F60000020D9F8002002F007028A420AD1410786
:100F70000CD4000712D43068716810F00C0019D13D
:100F80001EE000BF012001B0BDE8F0833168E268D7
:100F900021F4E061114331600007ECD5306821692C
:100FA00020F4605040EAC10030603068716810F091
:100FB0000C0005D00C282BD101F00301012927D109
:100FC00056F8081C042211F008016FF0070108BF51
:100FD0008C21715808BF0822D14043F2746201F09D
:100FE0000F01C0F6000252F8211000280A4618BF6F
:100FF00000220C2838D1706800F00300022811D0BC
:10100000032804BF41F20021C0F27A010EE000BFC4
:1010100004281FD0082823D141F20022C0F27A020E
:1010200022E000BF42F20041C0F2F4017068726831
:10103000C0F30210C2F30622514372680130B1FBC3
:10104000F0F0C2F34161022202EB4101B0FBF1F288
:101050000AE000BF42F20042C0F2F40204E000BF26
:10106000002200210C28C6D0306843F25961C0F339
:101070000310C0F60001085C00F01F0022FA00F126
:1010800040F20400C2F2000040F208020068C2F21E
:101090000002116001B0BDE8F043FFF7ADBC0000F5
:1010A00040F2080041F20801C2F20000C4F202015D
:1010B0000068096843F26962C1F30221C0F60002C8
:1010C000515C01F01F01C8407047000040F2080069
:1010D00041F20801C2F20000C4F20201006809688E
:1010E00043F26962C1F3C221C0F60002515C01F013
:1010F0001F01C8407047000041F20C01C4F2020118
:1011000051F8040C10F00C02086805D00C2A2BD101
:1011100000F00300012827D151F80C0C042310F033
:1011200008006FF00B0008BF8820085808BF08238C
:10113000D84043F2746300F00F00C0F6000353F888
:101140002030002A184618BF00200C2A18BF70470C
:10115000086800F00300022810D0032804BF41F201
:101160000023C0F27A030DE0042A1FD0082A23D1FD
:1011700041F20020C0F27A00704700BF42F2004303
:10118000C0F2F40308680A68C0F30210C2F3062232
:10119000096801305A43B2FBF0F0C1F34161022209
:1011A00002EB4101B0FBF1F0704700BF42F200409A
:1011B000C0F2F400704700BF00200023C5E7000024
:1011C000002804BF012070472DE9F04383B041F2AD
:1011D00000060446C4F20206B068F168227800F006
:1011E0000C09D00601F003081ED42078C00700F0D7
:1011F0008880B9F1080F00F07D80B9F10C0F08BFAD
:10120000B8F1030F76D061683068B1F5803F07D040
:10121000B1F5A02F40F0528240F480203060306859
:1012200040F48030306053E2B9F1000F1CD0B9F1C6
:101230000C0F08BFB8F1010F16D0A1693068002962
:1012400000F0A08140F001003060FFF7B1FB0546DF
:101250003068800700F1A881FFF7AAFB401B022835
:101260004FF00300F4D960E33068800703D5A0692C
:10127000002800F00F83256A3068000700F14A81DA
:10128000D6F89400000900F0F000854200F2488191
:101290003068B9F1000F40F008003060306820F08D
:1012A000F00040EA050030607068E16920F47F409A
:1012B00040EA0120706040F0B882B06DC00000F1DB
:1012C0005582B06D40F08050B065B06D00F0805038
:1012D00002900298FFF766FCB16D21F08051B16574
:1012E000B0F5007F00F04882802D40F28582032017
:1012F0008DE200BF3068800303D56068002800F0ED
:10130000C982207880072DD5B9F1040F1CD0B9F11E
:101310000C0F08BFB8F1020F16D0E1683068002941
:1013200000F0E68140F480703060FFF741FB054635
:10133000306840050FD4FFF73BFB401B02284FF0FD
:101340000300F5D9F1E200BF3068400503D5E0683D
:10135000002800F09F827068216920F0F85040EA70
:10136000016070602078000760D42078400779D44D
:101370002078800600F1B280A06A002800F0168371
:10138000022840F02381F068E16A00F003028A42FB
:1013900040F03481226B6FF00F0300F0700103EB1B
:1013A0000212914240F02A81616B00F4FE42B2EBDE
:1013B000012F40F02381A16B00F07842B2EBC16FA6
:1013C00040F01C81E26B0023CFF6E07303EA025287
:1013D00000F4C001A2F50012914240F00F81216C8F
:1013E0004FF07E4202EA016100F0C06001F17E41EF
:1013F000884240F003813068800100F1D782306874
:1014000040F080703060F06840F08070F060FFF76E
:10141000CFFA04463068800100F1C882FFF7C8FAAD
:10142000001B02284FF00300F4D97EE26169D6F870
:101430009400002900F0908040F00100C6F894006C
:10144000FFF7B6FA054600BFD6F8940080078CD4A3
:10145000FFF7AEFA401B0228F6D9032003B0BDE81F
:10146000F08300BFB06D5FEAC00808D4B06D40F0F3
:101470008050B065B06D00F080500090009847F249
:101480000007C4F200073868C00513D4386840F478
:1014900080703860FFF78CFA054600BF3868C005D9
:1014A00008D4FFF785FA401B02284FF00300F5D956
:1014B0003BE200BFA168D6F89000012908D00529B9
:1014C00040F0DC8040F00400C6F89000D6F89000B0
:1014D00040F00100C6F89000DCE000BF616AD6F879
:1014E0009800002900F0B48040F00100C6F8980090
:1014F000FFF75EFA054600BFD6F8980080073FF573
:101500003BAFFFF755FA401B02284FF00300F3D919
:101510000BE200BF306800F0F00085427FF6B8AE05
:10152000B06DC00000F18680B06D40F08050B065B5
:10153000B06D00F0805001900198FFF733FBB16D62
:1015400021F08051B165B0F5007F79D0802D40F257
:10155000E1800320E9E000BF20F00100C6F894001C
:10156000FFF726FA054600BFD6F8940080077FF5FE
:10157000FCAEFFF71DFA401B02284FF00300F3D921
:10158000D3E100BF20F001003060FFF711FA0546FB
:10159000306880077FF529AEFFF70AFA401B022862
:1015A0004FF00300F4D9C0E1306840F0080030602B
:1015B0003068D4E9071220F0F00010433060706802
:1015C00020F47F4040EA012070600EE6B9F10C0F74
:1015D00000F06081306820F080703060FFF7E8F93B
:1015E000044600BF3068800140F1EA80FFF7E0F96F
:1015F000001B02284FF00300F4D996E1B9F10C0F5B
:1016000000F048813068400100F14481306820F0EA
:1016100080703060FFF7CCF9054600BF306880016C
:1016200040F18681FFF7C4F9401B02284FF0030008
:10163000F4D97AE1FFF7B6FAB0F5007F7FF486AF10
:10164000812D71D30120A02D88BF02206DE000BF45
:1016500020F00100C6F89800FFF7AAF9054600BF80
:10166000D6F8980080077FF587AEFFF7A1F9401BF9
:1016700002284FF00300F3D957E100BF20F001002A
:10168000C6F89000D6F89000002920F00400C6F8B3
:10169000900079D0FFF78CF9054641F2883700BFFA
:1016A000D6F89000800700F18180FFF781F9401B98
:1016B000B842F5D9032003B0BDE8F08320F48030B0
:1016C00030603068002920F48020306000F0848091
:1016D000FFF76EF9054600BF306880033FF511AE95
:1016E000FFF766F9401B64284FF00300F4D91CE1B2
:1016F00020F480703060FFF75BF9054630684005E4
:101700007FF530AEFFF754F9401B02284FF003007D
:10171000F4D90AE1A5F17000B0FA80F04009802DFB
:1017200008BF022001E000BF002042F20001C4F225
:1017300002010A6822F0070202440A60096801F007
:101740000701814240F0A680306840F00800306018
:101750003068D4E9071220F0F00010433060706860
:1017600020F47F4040EA012070605EE0FFF71AFA43
:10177000B0F5007F7FF4B8AD812D47D30120A02DB7
:1017800088BF022043E000BFFFF712F9054641F28F
:10179000883700BFD6F89000800707D5FFF708F913
:1017A000401BB8424FF00300F4D9BEE0B8F1000F7F
:1017B0003FF5DEADB06D20F08050B065D8E500BFDC
:1017C000F0684FF6FC71CFF6EE610840F060002043
:1017D00003B0BDE8F08300BFFFF7EAF8054600BF9D
:1017E000306880037FF58DADFFF7E2F8401B642879
:1017F0004FF00300F4D998E0A5F17000B0FA80F042
:101800004009802D08BF022001E000BF002042F205
:101810000001C4F202010A6822F0070202440A60D1
:10182000096801F00701814234D1B068F16810F015
:101830000C0005D00C2831D101F0030101292DD174
:10184000314651F8942B12F00802324608BF0A467E
:101850004FF00401126808BF082122FA01F143F297
:10186000746201F00F01C0F6000252F82110002846
:101870000A4618BF00220C283CD1F06800F0030093
:10188000022815D0032804BF41F20021C0F27A01DA
:1018900012E000BF012003B0BDE8F08304281FD090
:1018A000082823D141F20022C0F27A0222E000BFD0
:1018B00042F20041C0F2F401F068F268C0F3021095
:1018C000C2F306225143F2680130B1FBF0F0C2F3DB
:1018D0004161022202EB4101B0FBF1F20AE000BFDC
:1018E00042F20042C0F2F40204E000BF00220021F4
:1018F0000C28C2D0B06843F25961C0F30310C0F69F
:101900000001085C00F01F0022FA00F140F2040020
:10191000C2F2000040F208020068C2F20002116048
:10192000FFF76AF800283FF460AC03B0BDE8F0832D
:10193000F06848F28C01C0F29D1104F12C0700EA16
:10194000010C8ECF6FF00F00D4E90F5400EB0210A2
:101950000022CFF6E07241EA0C0102EA0552084388
:10196000A2F500124FF07E4540EA032005EA046527
:10197000104305F17E4540EAC7602843F0603068B7
:1019800040F080703060F06840F08070F060FFF7E9
:101990000FF804463068800108D4FFF709F8001BEF
:1019A00002284FF00300F5D9BFE700BF002003B0C5
:1019B000BDE8F083411E0020B0EB116F1CBF012079
:1019C00070474EF21002CEF2000251604EF62351E3
:1019D000CEF20001F0230B70072190601160704778
:1019E00070470000704700007047000090F83C20EE
:1019F000012A4FF002022DD010B580F83D20026878
:101A000042F6004C5368D2F808E0C4F2010C62457B
:101A100003D14C6823F4700323430C6823F0700354
:101A20002343B2F1804F536007D044F20003C4F265
:101A300001039A4201D0624504D189682EF08003E7
:101A4000194391600121002280F83D1080F83C206C
:101A5000BDE8104010467047002804BF01207047C1
:101A6000B0B590F83D1031B9002180F83C10044623
:101A700000F068F82046022180F83D10016842F627
:101A8000004E0A68C4F2010E714502D0B1F1804FD8
:101A900003D1846822F07002224343F6FF74C4F23B
:101AA000010444F2004CA142C4F2010C06DCB1F185
:101AB000804F0BD0714509D00CE000BF614505D0C7
:101AC00044F20004C4F20104A14203D1046922F4E7
:101AD000407222434368C56884697145CD628B6258
:101AE00018BF614526D143690B630B6822F0800261
:101AF00043F0040322430B6001234B610A6080F82A
:101B0000483080F83E3080F83F3080F8403080F830
:101B1000413080F8423080F8433080F8443080F81B
:101B2000453080F8463080F8473080F83D3000205E
:101B3000B0BD00BF44F20003C4F201039942D2D009
:101B4000D3E7000080B586B000680021B0F1804F77
:101B50000591CDE903110291019101D006B080BD3C
:101B600041F24C00C4F20200C26842F00102C260BD
:101B7000C26802F001020092009A026842F001027B
:101B800002600068022200F001000090009801202D
:101B90000190CDE90221CDE9041001A94FF0904058
:101BA000FEF724FE1C2000210022FEF779FF1C20F6
:101BB000FEF764FF06B080BD90F83C20012A4FF08C
:101BC000020200F0878010B580F83D20D0F800E0D8
:101BD0008822DEF80830CFF6FE721A40CEF80820D0
:101BE0000B684F2B40DC1F2B5EDD202B60D0302B91
:101BF0005ED0402B40F0EC80D1F804C0C968DEF81C
:101C00002030DEF8202042F60044C4F20104A6454C
:101C100022F00102CEF820200BD044F20042C4F2A0
:101C20000102964505D044F20002C4F20102964535
:101C300005D1DEF8202022F00402CEF82020DEF8C4
:101C4000182022F0F00242EA011123F00A0242EACF
:101C50000C02CEF81810CEF82020DEF8081041F063
:101C6000470121F030012AE06F2B35DDB3F5005F2D
:101C700000F09A80B3F5805F23D0702B40F0A880ED
:101C8000D1E901C3C968DEF8082043EA0C0322F455
:101C90007F4243EA01211143CEF80810DEF8081014
:101CA00041F077010BE000BF13B1102B40F09080A2
:101CB000DEF8081021F07001194341F00701CEF859
:101CC00008100022012180F83D10002180F83C100E
:101CD000BDE8104010467047502B2DD0602B77D1B7
:101CE000D1F804C0C968DEF82030DEF8202042F6C2
:101CF0000044C4F20104A64522F01002CEF82020D0
:101D000005D1DEF8202022F04002CEF82020DEF8B7
:101D1000182022F4704242EA013123F0A00242EA84
:101D20000C12CEF81810CEF82020DEF8081041F082
:101D3000670121F01001C2E7D1F804C0C968DEF8DC
:101D40002030DEF8202042F60044C4F20104A6450B
:101D500022F00102CEF820200BD044F20042C4F25F
:101D60000102964505D044F20002C4F201029645F4
:101D700005D1DEF8202022F00402CEF82020DEF883
:101D8000182022F0F00242EA011123F00A0242EA8E
:101D90000C02CEF81810CEF82020DEF8081041F022
:101DA000570121F020018AE7D1E901C3C968DEF8B3
:101DB000082043EA0C0322F47F4243EA0121114345
:101DC000CEF80810DEF8081041F4804177E700BF34
:101DD000012277E710B50168B1F1804F00D010BD46
:101DE000047F012C0CD0022C18BF10BD002404214C
:101DF00000F0D2FA2146BDE8104000F041BC00BF1F
:101E0000002100F0C9FA2146BDE8104000F038BCBE
:101E100090F83C30012B04BF022070474FEAB20219
:101E2000032A00F2C9802DE9F041DFE802F0038DBA
:101E30003F6700BF0368D1E900C5D1F80CE01C6A18
:101E40001A6A42F60048C4F2010844F2000722F080
:101E500001024345C4F201071A6207D044F200426E
:101E6000C4F20102934201D0BB4203D11A6A22F0AC
:101E700004021A621A4652F8186FB3F1804F18BF65
:101E8000BB4240F09F8026F00306354324F00A074A
:101E90000CF00A066EF3071537449D611F629F69B7
:101EA00027F00C079F6189687AE000BF0268D1E9DA
:101EB00000C7CD68166A146A42F60043C4F20103F3
:101EC0009A4224F48073136203D1136A23F480636B
:101ED000136252F81C3F65F3071723F0F3033B43EB
:101EE00026F420670CF00A0647EA062713605760BD
:101EF000136823F00C031360896851E00368D1E98B
:101F000000E6D1E902C11C6A1A6A360222F4805244
:101F10001A621A4652F81C5F4FF2FF07BE4325F4BF
:101F2000734561F30F3624F420440EF00A0746EAA5
:101F3000050144EA073711601F62116821F440610E
:101F400011604FEA0C212BE00268D1E900C7CD688F
:101F5000166A146A42F60043C4F201039A4224F05E
:101F60001003136203D1136A23F04003136252F883
:101F7000183F3F024FF2FF04A74323F4734365F376
:101F80000F373B4326F0A0070CF00A0647EA061776
:101F900013609760136823F4406313608968090233
:101FA0001368194311600021BDE8F041002280F858
:101FB0003C200846704700BF0121002280F83C20E9
:101FC0000846704743453FF45EAF46F001055DE7C4
:101FD000002804BF01207047B0B590F83D1031B91A
:101FE000002180F83C10044600F068F820460221E9
:101FF00080F83D10016842F6004E0A68C4F2010EF6
:10200000714502D0B1F1804F03D1846822F0700293
:10201000224343F6FF74C4F2010444F2004CA1428F
:10202000C4F2010C06DCB1F1804F0BD0714509D030
:102030000CE000BF614505D044F20004C4F2010485
:10204000A14203D1046922F4407222434368C56867
:1020500084697145CD628B6218BF614526D14369A1
:102060000B630B6822F0800243F0040322430B60F1
:1020700001234B610A6080F8483080F83E3080F8D8
:102080003F3080F8403080F8413080F8423080F8AE
:10209000433080F8443080F8453080F8463080F88E
:1020A000473080F83D300020B0BD00BF44F200034F
:1020B000C4F201039942D2D0D3E700007047000078
:1020C00080B5E9B10A1F4FEAB20E43234FF03F0C2F
:1020D000BEF1040F38BF0CEBB203C25C47230829E2
:1020E00008BF4623042908BF4523012A4FF00102F7
:1020F00010F803C008BFBCF1010F17D0104680BD17
:1021000090F83E2090F84430012A4FF0010208BFB9
:10211000012BF3D1022280F83E2080F844204FEAC0
:10212000B103032B4FF00102E8D838E0BEF1030FF2
:1021300028D8DFE80EF00315090F00BF022280F84F
:102140003F20082911D122E0022280F841200829ED
:102150000BD11CE0022280F84220082905D116E0AC
:10216000022280F84020082911D0042914BF80F8E9
:10217000472080F845204FEAB103032B4FF00102BE
:10218000BCD80CE0022280F843200829EDD180F869
:1021900046204FEAB103032B4FF00102AED843F2C1
:1021A000AC6C0068C0F6000C5CF823C0C36801F09A
:1021B0001F0143EA0C03C360036A02FA01F123EA38
:1021C00001020262026AB0F1804F41EA020101623B
:1021D0000BD044F20001C4F20101884205D042F65E
:1021E0000041C4F2010188420DD181680722C0F28A
:1021F0000102114006294FF000023FF47FAFB1F514
:10220000803F3FF47BAF0168002241F00101016093
:10221000104680BDF0B581B004460068C568066907
:10222000B10717D515F0020114D06FF0020101615A
:10223000012121778069800704D02046FFF7CAFD7D
:1022400006E000BF204600F09BF8204600F09AF818
:1022500000202077700719D515F0040016D02068EB
:102260006FF00401016102212177806910F4407F41
:1022700004D02046FFF7AEFD06E000BF204600F088
:102280007FF8204600F07EF800202077300717D531
:1022900015F0080014D020686FF0080101610421D6
:1022A0002177C069800703D02046FFF793FD05E042
:1022B000204600F065F8204600F064F80020207702
:1022C000F00619D515F0100016D020686FF0100137
:1022D000016108212177C06910F4407F04D02046B5
:1022E000FFF778FD06E000BF204600F049F82046E1
:1022F00000F048F800202077F00718BF15F0010023
:1023000006D020686FF001010161204600F03CF822
:1023100016F4025F05F0800718BF002F02D1F00508
:1023200009D410E020686FF4025101612046FFF7E4
:1023300059FBF00507D537B120686FF48071016152
:102340002046FFF74DFB700609D515F0400006D07A
:1023500020686FF040010161204600F055F8B0069A
:102360000CD515F0200009D021686FF0200220461E
:102370000A6101B0BDE8F040FFF736BB01B0F0BD27
:1023800070470000704700000068B0F1804F18BF30
:10239000704700F059BA00004FEAB101032984BF29
:1023A00000207047006800EB8100406B7047000020
:1023B000B0B5044690F83C0001284FF0020008BF79
:1023C000B0BD012584F83C5084F83D00204600F063
:1023D00055FB00284FF0010006D0002184F83D5045
:1023E00084F83C10B0BD00BF2068C16821F04001F6
:1023F000C160C16821F48041C1600020002184F8DF
:102400003D5084F83C10B0BD7047000010B5C0B11D
:102410000446C06F28B9002084F87800204600F0F8
:1024200025F82420E0672068616A026822F0010232
:10243000026011B1204600F0C9FB204600F0EEFC1E
:1024400010B1012010BD00BF2168486820F4904001
:102450004860886820F02A008860086840F001021F
:1024600020460A60BDE8104000F024BCF0B59BB0E7
:10247000044600201A90CDE91800CDE9160001A805
:1024800004305021FEF7CDF8206844F20041C4F238
:102490000001884202D01BB0F0BD00BF022501A898
:1024A0000195FEF79BFB002818BFFEF799F941F252
:1024B0004C00C4F20200C16816AC41F40031C160A6
:1024C000C168002601F400310091009901680327DA
:1024D00041F0010101600068214600F00100009018
:1024E00000980420CDE9160507201A904FF090407F
:1024F00018961997FEF77AF94FF4004016A9E1C132
:102500004FF0904021461A97FEF770F91BB0F0BDCE
:102510002DE9F04381B00446C06F20280AD18846D7
:1025200000294FF0010018BF002A07D101B0BDE813
:10253000F08300BF022001B0BDE8F0830020C4F8A2
:10254000840021201D46E0671646FEF731FAA4F804
:102550005060A4F85260A1680646B1F5805F02D1D0
:102560002069002844D047464FF00008B4F85200D4
:102570002168002842D005F1010900BFC8690006A2
:102580000ED4B9F1000F0FD0002D5FD0FEF710FA76
:10259000801BA8425CD821680868C8690006F5D588
:1025A00087B117F8010B12E0C8690006F8D4C869B2
:1025B00000065CBFC8695FEA0060F1D4C869000624
:1025C000F2D5EDE738F8020B00276FF35F20886241
:1025D000E06F00F02100212846D1B4F85200013804
:1025E000A4F85200B4F852000028C7D106E000BF9A
:1025F0000027B4F8520021680028BCD1C869400601
:102600001ED41DB3681C14D1C869400626D4C869FD
:10261000400623D4C869400620D4C86940064FF05C
:102620000000F1D50DE000BF20680168C0694006D8
:1026300014D4FEF7BDF9801BA842F5D908E000BF0D
:1026400000202021E16701B0BDE8F083FEF7B0F97A
:1026500003202021E16701B0BDE8F08300202021A4
:10266000E16701B0BDE8F083012001B0BDE8F0836F
:10267000FEE70000FEE70000FEE7000070470000F4
:1026800040F2700CC2F2000CDCF80430984207D91A
:10269000DCF80830984203D201293FD1002015E030
:1026A00080B5DCE9033E002298424FF0000388BF6A
:1026B0000123704538BF012203EA02000129BDE869
:1026C00080401BD100284FF001001FD09CF8231040
:1026D00043F2A862C0F6000202EB4101085C022846
:1026E00042D09CF8231003292DD08CF823009CF8AD
:1026F0002300012840D030BB00203EE09CF822108F
:10270000C9072BD100284FF001000CD10021ACF8F3
:1027100020100C218CF824101CE000BF9CF8220033
:10272000C0071BD100209CF8231043F2A462C0F61E
:10273000000202EB4101085C022808BF70479CF8C8
:102740002310032912D10020ACF820000C208CF8B3
:10275000240001208CF8230004E000BF9CF8220034
:1027600000F0FE008CF82200704700BF8CF82300B8
:102770009CF823000128BED10120BCF8201008439A
:10278000ACF820009CF8240050B1BCF820004000B8
:10279000ACF820009CF8240001388CF82400704725
:1027A00001208CF80000704740F27001C2F2000175
:1027B0000A78002A08BF70470A8C8A610A8CC2F323
:1027C000003202700A8CC2F3C02242700A8CC2F33B
:1027D000841282700A8C02F03F02C2700A8CD2040A
:1027E00003D4C27842F04002C27000220A700A8408
:1027F0000C2281F82420012281F8232081F8222054
:102800000068C8617047000080B540F27000C2F2F5
:10281000000040F2DC5140F6340E4FF4616C4FF48E
:1028200016724FF49663C0E9031E0021C0E901232C
:10283000C0F814C001840C2180F82410012180F814
:10284000231080F8221080BD40F27000C2F2000018
:10285000002101840C2180F82410012180F823102C
:1028600080F8221070470000F0B581B041F20005F9
:10287000C4F20205EA68920714D0EA68036802F01D
:1028800003029A424FF0010208D13BB1EA68436863
:10289000C2F3021201329A422AD00122104601B03C
:1028A000F0BD00BF0268032A10D0022A06D0012A18
:1028B00007D12B689B0710D403E000BF2B685B0592
:1028C0000BD40122104601B0F0BD00BF2B689B0362
:1028D0005CBF2B685FEA4333F3D5EB6847686FF062
:1028E0000F0623F0730306EB07173B431A43EA6016
:1028F000064628680F4620F080602860FEF758F8EA
:10290000044600BF2868000108D5FEF751F8001BF7
:102910000228F7D90322104601B0F0BD2969B0683A
:102920003246012F4FEA002008D0BFB948F2FF031A
:10293000D268C0F2FF731940D2061BE048F2FF03D1
:10294000CFF6FF1303F1B463194012690023CFF6E9
:10295000E07303EA0252A2F500120BE048F2FF0313
:10296000CFF6FF13526919404FF07E4303EA02622B
:1029700002F17E42084310432861286840F08060DD
:102980002860FEF715F804462868000108D4FEF711
:102990000FF8001B0228F7D90322104601B0F0BD42
:1029A000B0692969002208432861104601B0F0BDD2
:1029B00070470000FEF702B810B596B005A8442194
:1029C000FDF72FFE00244FF400700494CDE902447B
:1029D000CDE90044FEF7A0F820B1EFF3108072B605
:1029E000FEE700BFFEF7E6F841F29000C4F20200F5
:1029F000016821F018010160142060210590012078
:102A00000D9102210790CDE90B04CDE90F10119033
:102A1000102012900720CDE9130105A81591FEF7AB
:102A2000CFFB28B1EFF3108072B600BFFEE700BF06
:102A30000F200090032001900020CDE902000490B7
:102A400068460121FEF70CFA20B1EFF3108072B650
:102A5000FEE700BFFEF7B8F816B010BD4EF688507E
:102A6000CEF20000016841F470010160704700007F
:102A700040F29800C2F20000FFF7CCBB80B5D0F85E
:102A800000C04FF68872DCF80800CFF6FE72D1E97C
:102A900000E3104070321A4010434FEA331240EA0C
:102AA0000E00072ACCF808000BD80020DFE802F05F
:102AB00004040404061C500C80BD00BFBEF1050FC9
:102AC0006ED1012080BD00BFD1E902020969DCF8A6
:102AD0000830104323F47F4340EA01201843CCF828
:102AE0000800002080BD00BFD1F808E00969DCF8CB
:102AF0002030DCF8202042F60040C4F2010084457A
:102B000022F00100CCF820000BD044F20040C4F2C7
:102B10000100844505D044F20000C4F20100844560
:102B200005D1DCF8200020F00400CCF82000DCF80F
:102B3000180020F0F00040EA011023F00A0141EAF9
:102B40000E01CCF818000020CCF8201080BD00BF8A
:102B5000D1F808E00969DCF82030DCF8202042F6E2
:102B60000040C4F20100844522F01000CCF820009F
:102B700005D1DCF8200020F04000CCF82000DCF883
:102B8000180020F4704040EA013023F0A00141EA2F
:102B90000E11CCF818000020CCF8201080BD00BF2A
:102BA000DCF82000DCF8202022F00102CCF8202004
:102BB000DCF81820096922F0F00242EA0111CCF891
:102BC0001810CCF82000002080BD0000416A0A07E0
:102BD0000CD4CA0715D18A071ED44A0727D4CA06BF
:102BE00030D48A0639D44A0642D457E00268D0F875
:102BF00034C0536823F4004343EA0C035360CA070C
:102C0000E9D00268D0F828C0536823F4003343EABF
:102C10000C0353608A07E0D50268D0F82CC05368D3
:102C200023F4803343EA0C0353604A07D7D5026884
:102C3000D0F830C0536823F4802343EA0C03536078
:102C4000CA06CED50268D0F838C0936823F4805302
:102C500043EA0C0393608A06C5D50268D0F83CC0ED
:102C6000936823F4005343EA0C0393604A0615D596
:102C7000D0F800C0036CDCF80420B3F5801F22F408
:102C8000801242EA0302CCF8042007D1DCF80420C9
:102C9000436C22F4C0021A43CCF80420090658BF42
:102CA00070470168806C4A6822F400221043486033
:102CB00070470000B0B582B004460020C4F884001C
:102CC000FDF776FE216805460A68120737D56FF0D2
:102CD0007E4C20464FF4001100222B46CDF800C058
:102CE00000F09CF950B300BF206850E8000F216845
:102CF00020F0800041E80002DAB1206850E8000FBF
:102D0000216820F0800041E8000292B1206850E87C
:102D1000000F216820F0800041E800024AB12068DD
:102D200050E8000F216820F0800041E80002002AEE
:102D3000DAD1032020217C226AE000BF21680868E4
:102D400040075DD56FF07E4C20464FF48001002295
:102D50002B46CDF800C000F061F9002850D000BF2C
:102D6000206850E8000F216820F4907041E80002CC
:102D7000BAB3206850E8000F216820F4907041E851
:102D8000000272B3206850E8000F216820F49070B0
:102D900041E800022AB3206850E8000F216820F4BF
:102DA000907041E80002002ADAD11AE0206850E869
:102DB000020F216820F0010041E80202DAB1206828
:102DC00050E8020F216820F0010041E8020292B1B0
:102DD000206850E8020F216820F0010041E802025B
:102DE0004AB1206850E8020F216820F0010041E854
:102DF0000202002ADAD103202021802208E000BF4D
:102E00002020E067C4F880000021642200202166B1
:102E1000A150002184F8781002B0B0BDB0B50546CD
:102E200005F108041ECC0068194341EA0403D5F8F3
:102E30001CE0046846F6F311CEF6FF7121401943F9
:102E400041EA0E010160416848F2000C21F4405152
:102E500011434160AA69C4F2000C60451CBF296A95
:102E60000A43816821F43061114344F20042C4F204
:102E700000029042816017D060450DD043F60001FA
:102E8000C4F2010188424BD141F28801C4F202012F
:102E90000B685EA212E000BF41F28801C4F2020199
:102EA00009688B0A06E000BF41F28801C4F2020102
:102EB00009688B0843F2DC62C0F6000203F00301EC
:102EC00052F82130604542F20040C0F2F4002ED0AA
:102ED000BEF5004F12D1082B4FF0010100F2918096
:102EE000DFE803F00656688F5E8F8F8F660000BFA5
:102EF000FEF7D6F8002840F05D807EE0082B4FF00A
:102F0000010100F27E80DFE803F005476B7C4F7C17
:102F10007C7C6900FEF7C4F8002861D16DE000BF39
:102F20001023604542F20040C0F2F400D0D1082BDB
:102F30004FF0010165D8DFE803F005640F64096410
:102F400064640D00FEF7ACF830B956E0FEF7D4F833
:102F500010B952E04FF400406A6802EB4201884227
:102F60004FF001014DD3130398424AD8010E0002DD
:102F700010EB520041F100010023FDF795F94FF6E7
:102F80000052A0F54071C0F20F02914233D337E0F6
:102F9000FEF79CF870B930E0FEF798F800BB2CE023
:102FA000FEF7AAF830B928E0FEF7A6F8C0B924E089
:102FB0004FF4004069684A0802EB4000B0FBF1F0B2
:102FC0004FF6EF72A0F11001914219D84FF6F0714F
:102FD0000140C0F3420008440DE000BF4FF4004040
:102FE00069684FF6EF7200EB5100B0FBF1F0A0F111
:102FF0001001914204D82968C860002101E000BF97
:10300000012100220846AA66EA66B0BD0100000060
:103010000400000002000000080000002DE9F0415B
:10302000804600681546C2690E461140891BB1FAF8
:1030300081F149098D4223D1069C2CB3611C29D111
:10304000C1693140891BB1FA81F149098D4217D11B
:10305000C1693140891BB1FA81F149098D420FD113
:10306000C1693140891BB1FA81F149098D4207D10B
:10307000C1693140891BB1FA81F149098D42DFD024
:103080000020BDE8F08100BFFDF792FC0320BDE801
:10309000F08100BF1F4607E0C0693040801BB0FAD6
:1030A00080F040098542EBD1FDF782FCC01BA042B5
:1030B00000F2B080D8F8000001684907ECD5402E36
:1030C000EAD0802EE8D0C169090700F1A780C16964
:1030D0000905E1D54FF400610162D8F8000050E81D
:1030E000000FD8F8001020F4907041E80002002A88
:1030F00043D0D8F8000050E8000FD8F8001020F4B2
:10310000907041E80002C2B3D8F8000050E8000F08
:10311000D8F8001020F4907041E800026AB3D8F8A3
:10312000000050E8000FD8F8001020F4907041E83B
:103130000002002AD1D120E0D8F8000050E8020FA8
:10314000D8F8001020F0010041E802020AB3D8F8D4
:10315000000050E8020FD8F8001020F0010041E80C
:103160000202B2B1D8F8000050E8020FD8F80010FF
:1031700020F0010041E802025AB1D8F8000050E8FE
:10318000020FD8F8001020F0010041E80202002AE6
:10319000D2D1D8F8600001282CD1D8F8000050E82E
:1031A000000FD8F8001020F0100041E800020AB328
:1031B000D8F8000050E8000FD8F8001020F01000F8
:1031C00041E80002B2B1D8F8000050E8000FD8F88A
:1031D000001020F0100041E800025AB1D8F80000B9
:1031E00050E8000FD8F8001020F0100041E800026D
:1031F000002AD2D120200021C8F88000C8F8601031
:10320000C8F86810C8F88400032088F87810BDE872
:10321000F08100BF0320BDE8F08100BF08210162FA
:10322000D8F8000050E8000FD8F8001020F4907093
:1032300041E80002002A44D0D8F8000050E8000F0E
:10324000D8F8001020F4907041E80002CAB3D8F812
:10325000000050E8000FD8F8001020F4907041E80A
:10326000000272B3D8F8000050E8000FD8F8001040
:1032700020F4907041E80002002AD1D121E000BF83
:10328000D8F8000050E8020FD8F8001020F0010034
:1032900041E802020AB3D8F8000050E8020FD8F85B
:1032A000001020F0010041E80202B2B1D8F800009D
:1032B00050E8020FD8F8001020F0010041E80202A7
:1032C0005AB1D8F8000050E8020FD8F8001020F0EA
:1032D000010041E80202002AD2D1D8F8600001289A
:1032E0002CD1D8F8000050E8000FD8F8001020F0DA
:1032F000100041E800020AB3D8F8000050E8000FBF
:10330000D8F8001020F0100041E80002B2B1D8F85F
:10331000000050E8000FD8F8001020F0100041E83D
:1033200000025AB1D8F8000050E8000FD8F8001099
:1033300020F0100041E80002002AD2D12020C8F875
:10334000800000200821C8F86000C8F86800C8F8AC
:10335000841088F878000120BDE8F081FEE70000C5
:10336000A6B0FDF739FBFFF727FB002541F24C0023
:103370000695CDE90455CDE90255C4F20200016875
:1033800040F2004441F0040101600168C4F6000409
:1033900001F00401169116990168002241F0010123
:1033A00001600168082601F0010116911699016873
:1033B00041F0020101600068082100F0020016904F
:1033C00016982046FDF7EEFA0120CDE9030502A983
:1033D000204602960595FDF709FA40F2E40044F212
:1033E0000041C2F20000C4F200010C234FF4E132AC
:1033F00080E82600C0E90355C0E90535C0E9075556
:103400004562FFF703F828B1EFF3108072B600BFF2
:10341000FEE700BF40F29800C2F200004FF080418A
:103420004FF0FF331995CDE917552595CDE9235573
:10343000CDE92155CDE91F551F2280E82600C0E9BE
:1034400003358561FEF708FB20B1EFF3108072B6FB
:10345000FEE700BF4FF48050169040F29800C2F291
:10346000000016A9FEF7A8FB20B1EFF3108072B69A
:10347000FEE700BF40F29800C2F20000FEF7A8FD90
:1034800020B1EFF3108072B6FEE700BF0420029077
:103490005020039040F298000024C2F2000002A9DC
:1034A000CDE904440694FEF783FF28B1EFF31080C2
:1034B00072B600BFFEE700BF0120CDE9230440F251
:1034C0009800C2F2000022A9002222942594FEF75F
:1034D0009FFC28B1EFF3108072B600BFFEE700BF7B
:1034E0000220CDE9220040F29800C2F2000022A999
:1034F0000422FEF78DFC28B1EFF3108072B600BFF6
:10350000FEE700BF40F298040020C2F200041F90C2
:1035100021901FA92046FEF769FA28B1EFF3108029
:1035200072B600BFFEE700BFFFF76EF9204600212C
:10353000FEF7C6FD20460421FEF7C2FD2068254A9D
:10354000016840F2E40841F004010160C1680DF136
:103550005C0C41F00101C1601EA0071D16928ECFC8
:10356000D0E90565D0E90740C2F200088CE88E007A
:10357000CDE91D4016A9404622224FF47A73CDE9C9
:103580001B65FEF7C5FF40F2700443F2EC6AC2F21D
:1035900000040DF18809C0F6000A02AF2078012866
:1035A000FCD14846FFF700F99DF88A209DF88B3042
:1035B0009DF889509DF8886038465146CDE90056FF
:1035C000FCF7EAFE82B2404639464FF47A73FEF7C2
:1035D0009FFFE3E75B5243355D204C617365725496
:1035E0006167206F6E7476616E67657220676573C0
:1035F000746172740D0A000030380A2801D201206B
:10360000704700207047F1EE100A4FF6FF71C0F2CC
:10361000C03120EA010040F04070E1EE100A70472E
:1036200030313233343536373839414243444546F8
:1036300040305800303132333435363738396162F2
:1036400063646566403078000400000800000000F4
:103650000000000200010000100000000000000057
:10366000000102030406070809000000000102032C
:1036700004000000A0860100400D0300801A06002F
:1036800000350C0040420F0080841E0000093D0000
:1036900000127A000024F40000366E010048E801B0
:1036A000006CDC02020101030003020002000000C2
:1036B000040000000800000010000000FDFFFFFFF4
:1036C000FBFFFFFFF7FFFFFFEFFFFFFFFFFDFFFF28
:1036D000FFFBFFFFFFF7FFFFFFEFFFFF0000000012
:1036E0000400000002000000080000005B524335A7
:1036F0005D2041647265733A20307825303258205D
:103700007C20436F6D6D616E646F3A203078253098
:103710003258207C20546F67676C653A20256420FE
:103720007C204669656C643A2025640D0A0000001F
:10373000503700080000002010000000F0010008D1
:103740006037000810000020600700001002000829
:10375000010000001000000000093D000000000012
:040000050800018D61
:00000001FF
